:020000040800F2
:10000000F0050020C500000879250008091C00083B
:1000100000000000000000000000000000000000E0
:10002000000000000000000000000000192B000884
:100030000000000000000000652900081B2B0008DC
:10004000D700000800000000D7000008D700000813
:10005000D7000008D7000008D7000008D700000824
:100060000000000079020008D7000008D70000084F
:1000700055010008D7000008D70000080000000064
:10008000D70000080000000000000000D7000008B2
:1000900000000000D7000008D70000080D1C000871
:1000A000000000006929000800000000692F000816
:1000B0000348854600F03CF80048004755310008E9
:1000C000F00500200448804704480047FEE7FEE7AB
:1000D000FEE7FEE7FEE7FEE78D2B0008B100000813
:1000E00030B50B46014600202022012409E00D46D0
:1000F000D5409D4205D31D469540491B2546954058
:1001000040191546521E002DF1DC30BDD2B201E07F
:100110000270401C491EFBD270470022F6E710B562
:1001200013460A4604461946FFF7F0FF204610BD65
:10013000064C0125064E05E0E36807CC2B430C3C3A
:1001400098471034B442F7D3FFF7B6FF703B00086E
:10015000903B000810B5024800F049F910BD0000BE
:100160004000002010B50146406A426C50231A42FC
:100170000AD1416C01225202114341640168CA68EC
:100180001205920F05D020E0C06B026B0846904725
:1001900010BD026A002A18D10A68120715D58A68AC
:1001A00053070122002B09DB4B680C24A3434B604F
:1001B000416C130299431143416406E0416C2023D2
:1001C00019434164816C1143816400F00DF910BD45
:1001D00010B5406A416C402211434164816C042295
:1001E0001143816400F002F910BD10B5406A00F0BF
:1001F000FCF810BDF8B50446002000902068816826
:100200008907890F012905D10168C9072CD1C16867
:10021000090429D48168154A1026114001250029B6
:1002200015D1816829438160124811490068FFF7A0
:1002300057FF00E0401E00900028FBD100F02EFC8C
:1002400007460CE000F02AFCC01B022807D9606CAE
:1002500030436064A06C2843A0640120F8BD20688E
:100260000068C043C007EDD10020F8BD1700008032
:1002700040420F001800002010B5024800F09CFA20
:1002800010BD00008C00002010B504460068054930
:1002900040181421FFF724FF800020640248E06327
:1002A00010BD0000F8FFFDBF0000024030B5056C36
:1002B0000124AC40C56B6C60046863604368102B1C
:1002C000036803D099600068C26030BD9A6000681E
:1002D000C16030BD70470000F8B5002504464034C9
:1002E00000952278012A39D00122227003689E6885
:1002F000760767D4384F4E68BE424DD09E6A0F785D
:10030000BA4016439E620123826B1B079A421FD09C
:10031000012A1DD0022A1BD0032A19D0042A17D083
:10032000052A15D0062A13D0072A11D002688B6837
:1003300056697607760FB3420AD05369DB08DB00B3
:100340005361006842690B7A5B075B0F1A43426195
:100350000A68102A04D0112A02D038E00220F8BD21
:100360001E488368102A07D0012292051343836038
:100370000868102803D02AE00122D205F6E71948C0
:1003800017490068FFF7ACFE0A21484300E0401E11
:1003900000900028FBD11AE0986A0E78B240904392
:1003A00098620968102901D0112910D10B48826880
:1003B000102904D0012189058A43826007E00121C8
:1003C000C905F9E7416C2022114341640125002051
:1003D00020702846F8BD00000110000000270140F1
:1003E00040420F001800002070477047704770B5FA
:1003F000044600680168490702D54168490705D4E9
:100400000168090730D5416809072DD5616CC90617
:1004100004D4616C0122520211436164C1680C254D
:100420000905890F00291AD1216A002917D101680D
:10043000090714D581684A070121002A08DB4268B0
:10044000AA434260606C0A0290430843606406E07D
:10045000606C202210436064A06C0843A0642046B6
:10046000FFF7C2FF206805602068016809060DD506
:10047000406800060AD5606C0121090408436064E5
:10048000204600F0D7F821688020086020680168C5
:10049000C90613D54168C90610D5616B102501291D
:1004A00002D0C168C90707D0A16C02221143A16420
:1004B00005602046FFF79AFF2068056070BD0000C8
:1004C000F8B500250446002803D0606C002802D04F
:1004D00008E00120F8BD0020A06440210855204616
:1004E00000F0AAF8606C1022104270D12068816878
:1004F00049076CD4616C1301994302231943616469
:1005000081688907890F012905D10168C9070FD1C1
:10051000C16809040CD4C1681826B143A6683143E8
:10052000C1602068016966688900890831430161FA
:100530002068C1683D4E3140C160A069E169800317
:10054000C9030843216A4E033043666B012E02D073
:100550000126360300E000263043E6683043266972
:10056000022E08D000263043266B76003043666AA0
:10057000012E02D00BE00426F5E7002928D0616C9B
:10058000202631436164A16C01263143A164A16A34
:100590000E46FF3EC23E02D0E66A31430843216860
:1005A000CE680643CE600126A16B3607B14213D058
:1005B000012911D002290FD003290DD004290BD015
:1005C000052909D0062907D0072905D010E028E021
:1005D000012109040843DAE721684E69F608F600AC
:1005E0004E6121684E69278F7F077F0F3E434E6122
:1005F0002168C9680E4E3140814207D10020A064B5
:10060000606C80088000401C606408E0606C984367
:1006100010436064A06C01210843A06401252846B2
:10062000F8BD606C10436064F8E700001902FEFF3B
:10063000E7FF3F837047000070B586B0064614217F
:100640006846FFF76AFD1E493068884236D11D4969
:100650008A69401502438A618A69024005924A69A3
:10066000000202434A6149690025014005911F20AB
:10067000009003200190092069460295C00600F011
:1006800059F91148114C21C42560A5608020E5600E
:1006900060602020656120610C48083C00F0DAF8B9
:1006A000002801D0FFF716FEF463002211460C204B
:1006B000666200F003FC0C2000F0F6FB06B070BD93
:1006C0000024014000100240080002408C0000207D
:1006D000F7B5044600680025806840073DD42646EB
:1006E0004036307801280AD001273770E0690128A8
:1006F00007D02046FFF77EFD050002D02EE0022045
:10070000FEBD606C16490840FF210131084360645A
:100710000020A0643070E16B12488862E16B1248DF
:10072000C862E16B1148086321681C2008602068DA
:1007300041681022114341602068C1683943C1609B
:100740002168E06B4031029B019A00F0AFF820680D
:10075000816804221143816000E002252846FEBD25
:10076000FEF1FFFF65010008EB010008D101000860
:1007700070B50024014620314A78022A03D00421B2
:100780008163012416E0026813680E25AB431360F1
:10079000026813685B085B0013600122056C134656
:1007A000AB40C56B6B604A7000220A70416B002938
:1007B00000D08847204670BDF0B4C16B0D68016859
:1007C0000C680422066C1346B3402B420DD063071D
:1007D0000BD50B689B0602D40B6893430B60016C2E
:1007E0008A40C16B4A60C16A19E00227B7400246DD
:1007F0002F4001232032002F15D0A70713D50C68F6
:10080000A40604D40C680A25AC430C605370036C36
:1008100002219940C36B596000211170816A00293F
:1008200016D0F0BC08470827B7402F4210D0240745
:100830000ED50C680E25AC430C60046C1946A14023
:10084000C46B61608363537000211170016BE6E734
:10085000F0BC704770B5040024D00220214620313E
:100860000D464870226811680F48A368014060680F
:1008700026691843E3683343184363691843A3693F
:100880001843E3691843084310602046FFF7FCFC57
:100890000020A062E06220636063A06301216970B0
:1008A000287070BD012070BD0FC0FFFFF8B5044671
:1008B0008C46203001780025012909D001260670D8
:1008C00041780027012905D0077002252846F8BD88
:1008D0000220F8BD02214170A76320680168490821
:1008E0004900016061462046FFF7E0FCE06A00280D
:1008F0002068016802D00E22114306E00A2211434B
:100900000160206801680422914301602068016849
:1009100031430160DAE731B500F0C0F8009C0546CC
:10092000601C00D0641C00F0B9F8401BA042FAD350
:1009300038BD0000F8B500238DE001249C40A4469A
:1009400022407DD04C68022C01D0122C0CD1DC0846
:10095000A40027183C6A5D07ED0E0F26AE40B44395
:100960000E69AE4026433E6205685E000324B44033
:100970000F79A543BF07BF0FB7402F4307604D68EE
:10098000012D05D0022D03D0112D01D0122D0ED135
:100990008568CF68A543B7402F43876047686546A1
:1009A000AF430D79ED06ED0F9D403D434560C568B1
:1009B000A5438C68B4402C43C4604C68E40049D51E
:1009C000284CA56901263543A561A4699D083440DA
:1009D0000094254CAD002F19BC689D072E0F0F25E4
:1009E000B540AC430925ED06A84201D100250FE032
:1009F0001E4DA84201D101250AE01D4DA84201D19A
:100A0000022505E01B4DA84201D1032500E0052584
:100A1000B5402543BD60184C25684E689543F603E4
:100A200000D51543256065684E689543B60300D52B
:100A300015436560A5684E689543F60202D500E04F
:100A400008E01543A560E5684E689543B60200D5F9
:100A50001543E5605B1C0A681446DC4000D06CE777
:100A6000F8BD0000001002400000014000040048F2
:100A700000080048000C00480004014000690840DC
:100A800000D00120704742694A4042617047002A05
:100A900001D08161704781627047000001480068A1
:100AA000704700001400002070B5024640325378B1
:100AB000202B1CD11378012B19D00123137024246F
:100AC0005470046825689D432560046825681E03EA
:100AD000B5432560046825680D43256000680168FA
:100AE00019430160202050700020107070BD02205A
:100AF00070BD70B5024640325378202B1BD113785D
:100B0000012B18D0012414702423537003681D682E
:100B1000A5431D6005682B680F263602B343090202
:100B2000194329600068016821430160202050704A
:100B30000020107070BD022070BD7047704770B506
:100B400003689A691968D40507D50C0605D5446C65
:100B500001252C4344642C02DC61530508D50B06A7
:100B600006D5436C082423434364E3010468E3612E
:100B7000920508D5090606D5416C0222114341644D
:100B800011020268D161416C0B22114202D0416C0A
:100B900001F0E0F870BD026891691268436B002BA8
:100BA00000D018477047704770B5040006D025463E
:100BB000403568780026002802D005E0012070BD8D
:100BC0002E70204600F0F6F8242068702068016836
:100BD0004908490001600F216068090688432168BF
:100BE000086121688A680120C00382438A60E16845
:100BF0000129A16808D02122920211432268916044
:100C0000E168022902D005E00143F7E701212268EB
:100C1000C902516021684A680F4B1A434A60216833
:100C2000CA688243CA60616920690843A1690902F0
:100C300008432168C860216AE069084321680860A8
:100C400020680168012211430160666420206870F9
:100C50002663AE70002070BD008000027047000067
:100C6000FFB5054604464035687883B0202876D124
:100C70000C98002874D00D98002871D0287801288D
:100C80006DD001202870FFF709FF07460122009070
:100C90001923D103204601F09BFA002853D12120CB
:100CA00068704020A870002666640C9860620D98F9
:100CB000608566630E980090019704A90EC92046CE
:100CC00001F0B2F9002804D0606C2E7004286AD0BC
:100CD00039E0608DFF2805D9FF22228501231B06FC
:100CE000009606E0608D20850096208D0123C2B21B
:100CF0005B062046049901F059FA3A4620460E99BF
:100D000001F0B1FA002803D0606C04284BD01AE03F
:100D1000606A411C6162216800788862608D401EB3
:100D20006085208D401E0004000C208524D1608D3C
:100D3000002821D000970022802120460E9B01F040
:100D400047FA002802D0032007B0F0BD608DFF28CD
:100D500007D9FF22228501231B06009608E024E024
:100D600021E0608D20850096208D0123C2B25B06B4
:100D70002046049901F01AFA608D0028BDD13A4648
:100D800020460E9901F048FA0028BDD120682021A4
:100D9000C16120684268064B1A4042606970AE70BB
:100DA0002E700020D0E70120CEE70220CCE7000023
:100DB00000E800FE10B586B0044614216846FFF72F
:100DC000ACF916492068884226D1154C616901208A
:100DD0008004014361616169014005910320800243
:100DE00000901220012101900320029104910390B0
:100DF00069460C48FFF79EFDE1690120400501436B
:100E0000E161E1690022014005911146172000F0DF
:100E100055F8172000F048F806B010BD0054004007
:100E20000010024000040048704770470248016803
:100E3000491C0160704700001400002010B50648EE
:100E40000168102211430160002000F007F800F053
:100E500017F8002010BD00000020024010B5044625
:100E600000F03AF97D21C900FFF73AF900F052FD90
:100E700000222146501E00F021F8002010BD000085
:100E800008B50848816901221143816181691140D7
:100E90000091C26901040A43C261C0690840009020
:100EA00008BD000000100240C106C90E01208840A4
:100EB000014908607047000000E100E010B501F052
:100EC00055FC10BDF8B505460068354CC00352D539
:100ED000E0690026C00007D4E16920040143E16114
:100EE000E1690140012600912E480168C90510D42E
:100EF0000168821511430160FFF7D0FD074604E049
:100F0000FFF7CCFDC01B642824D826480068C00524
:100F1000F6D5206A03273F02384020D0696839405F
:100F200081421CD0206A226AB843012109040A4385
:100F30002262226A8A4322622062C0070FD0FFF732
:100F4000ADFD009008E0FFF7A9FD0099411A164891
:100F5000814201D90320F8BD206A8007F3D5206AB9
:100F60006968B84308432062002E04D0E16901207B
:100F700000078143E1612878C00705D0206BA9688C
:100F800080088000084320632878800605D5206B00
:100F900010218843E968084320630020F8BD000061
:100FA000001002400070004088130000F8B50546AC
:100FB00044480E460068C007C00FB0420AD24148FC
:100FC000016849084900314301600068C007C00F4B
:100FD000B0425CD128783C4C800705D56068F02190
:100FE0008843A968084360602878C0073FD06868D4
:100FF000012813D02168022813D08907002946DA76
:1010000061688908890001436160FFF747FD6968ED
:10101000074601290DD0022917D024E02168890351
:10102000ECE78901EAE7FFF739FDC11B2748814258
:1010300017D860680007800F0128F4D117E0FFF788
:101040002DFDC11B214881420BD860680007800F2D
:101050000228F4D10BE0FFF721FDC11B1B488142A0
:1010600001D90320F8BD60680007800FF3D115484F
:101070000168C907C90FB1420BD901684908490085
:10108000314301600068C007C00FB04201D00120A9
:10109000F8BD2878400706D5606807210902884313
:1010A000E9680843606000F02DF86168084A0906A5
:1010B000090F515CC840074908600020FFF7CEFEC9
:1010C0000020F8BD002002400010024088130000FC
:1010D0003433000818000020014800687047000001
:1010E000180000200448054900684968044A490579
:1010F000490F515CC84070471800002000100240A2
:101100004433000810B512A30FCB88B06C460FC44F
:1011100013A30FCB0FC416494A680C201346034093
:101120001448042B0FD0082B0DD193021B0F6C46D3
:10113000E45CC96A04AB0907090F595CD20304D502
:10114000FEF7CEFF604308B010BD0B486043FAE7DE
:1011500002030405060708090A0B0C0D0E0F1010F8
:101160000102030405060708090A0B0C0D0E0F10F7
:101170000010024000127A0000093D00FEB504464E
:101180000078D04DC00747D068680007800F01285D
:1011900007D068680007800F022809D16868C0037B
:1011A00006D52868800337D5606800287ED033E0F4
:1011B000012062680004012A11D08100002A01D0B8
:1011C000052A10D02A6882432A602868884328604C
:1011D0006068002814D0FFF761FC06460CE029681F
:1011E00001432960F4E72A680A432A60F7E7FFF71A
:1011F00055FC801B64286FD828688003F7D50BE066
:10120000FFF74CFC064604E0FFF748FC801B64280F
:10121000F1D828688003F7D42078012680070028B9
:101220003BDA68680007800F07D068680007800F06
:10123000022809D16868C00306D42868800715D53C
:10124000E068012832D111E0E0680028286815D054
:1012500030432860FFF722FC074604E0FFF71EFC3E
:10126000C01B0228C7D828688007F7D52868F8214E
:1012700088432169C900084328600EE04008400007
:101280002860FFF70BFC074604E0FFF707FCC01BD4
:101290000228B0D828688007F7D42078000724D522
:1012A000E0690028686A10D0304300E008E1686215
:1012B000FFF7F4FB074604E0FFF7F0FBC01B022832
:1012C00099D8686A8007F7D50FE040084000686247
:1012D000FFF7E4FB074605E09DE0FFF7DFFBC01BDF
:1012E000022888D8686A8007F7D420780427400746
:1012F000002860DA00200190E869C00008D4E9699C
:10130000B8060143E961E9690140012000910190BB
:101310006D480168C90511D4016882151143016047
:10132000FFF7BCFB009005E0FFF7B8FB0099401AFF
:10133000642870D864480068C005F5D5A068012805
:101340000AD0002801D0052810D0286A40084000A3
:101350002862286AB84301E0286A30432862A068FE
:10136000002812D0FFF79AFB00900AE0286A384361
:101370002862F1E7FFF792FB0099411A5348814236
:1013800049D8286A8007F5D50DE0FFF787FB009064
:1013900006E0FFF783FB0099411A4C4881423AD896
:1013A000286A8007F5D40198002804D0E969012053
:1013B00000078143E9612078C00635D560690128BE
:1013C0000CD0401D686B23D038436863686B4008BD
:1013D00040006863FFF762FB064622E0686B384313
:1013E0006863686B30436863FFF758FB064604E0A8
:1013F000FFF754FB801B02285BD8686B8007F7D58A
:10140000686BF8218843A169C900084368630BE051
:10141000B8436863F4E74CE0FFF740FB801B022809
:1014200047D8686B8007F7D4206A002846D06968DF
:101430000907890F022943D00126360602282868A9
:1014400005D0B0432860FFF729FB044633E0B043E2
:101450002860FFF723FB074604E0FFF71FFBC01BD4
:10146000022826D828688001F7D4E86AE16A0009D2
:1014700000010843E862616AA06A084369683D2286
:101480001204914308436860286830432860FFF7DE
:1014900005FB044604E0FFF701FB001B022808D807
:1014A00028688001F7D509E0FFF7F8FA001B022849
:1014B00001D90320FEBD28688001F5D40020FEBDBF
:1014C0000120FEBD001002400070004088130000A3
:1014D00070470000F8B504460068426881684B0612
:1014E00005D4CB0703D0530601D5E16C04E08B078C
:1014F00005D5130603D5216D20468847F8BDFF2387
:1015000061331942FAD09306F8D523464D0640338D
:10151000002D09DA5D7F032D3CD0256E042635436E
:101520002566C568856800958E060125002E08DAB7
:10153000266E2E4326668668009606684027BE43C0
:101540000660C80506D5206E08210843206620687D
:1015500080680090206E0028D0D020684168E02686
:10156000B14341605D77900718D0206841688908D1
:1015700089004160A06D0B4D002803D04563A06D2C
:10158000FFF7F6F8606D0028B8D04563606DFFF78F
:10159000EFF8F8BDC16880680090F8BD2046FFF7FD
:1015A00097FFF8BD99290008F8B5040007D0002678
:1015B00025464035A662687F002802D005E001205C
:1015C000F8BD2E77204600F04BF802236B77206899
:1015D00001684022914301600721E06809028842C6
:1015E00001D9002201E0012212030F273F02B84275
:1015F00002D0884200D0A662276B002F05D1884216
:1016000001D9236301E001202063A1686068636958
:1016100008432169194308430123A1695B0219406A
:101620000843E1690843216A0843A16A0843216825
:101630000860616B606AA36908431B0C0427E168BA
:101640003B40194308432168104348602068C16942
:101650007A029143C1612666012068770020F8BDB7
:1016600010B586B0044614216846FEF756FD1549AC
:101670002068884224D11448826981140A43826117
:1016800082690A400592426949010A434261406900
:1016900008400590E02000900220019000210320E6
:1016A00003900291049109206946C006FFF742F9B0
:1016B000002211461920FFF701FC1920FFF7F4FB67
:1016C00006B010BD0030014000100240FFB50446D6
:1016D00083B00120254640350090287F00270E4624
:1016E00001280FD001202877FFF7D8F90190687FF3
:1016F000616801280DD0CA1FFD3A08D1A1680029F0
:1017000005D102E0022007B0F0BD042801D0022775
:10171000FAE0002E7CD005980028FBD0069800281F
:10172000F8D0687F042801D0052068770020206663
:10173000059921640699E9800699A980A66306990E
:10174000E1870699A187E06420650723E1681B0211
:10175000994202D8E888012806D920684268012108
:1017600009038A43426005E02068416801221203B0
:101770001143416020680168490603D40168402292
:1017800011430160E1686068994242D9002802D0A3
:10179000E08F012835D121683088C860E08F401E75
:1017A000E087B61C2DE0009800280ED0E08F0028BE
:1017B0000BD020688168890707D53188C160E08F28
:1017C000401EE0870020B61C0090E88800280ED05C
:1017D00020688168C9070AD0C06805990880059803
:1017E000801C0590E888401EE880012000900C983D
:1017F000401C06D0FFF752F90199411A0C9881421A
:101800006DD2E08F0028CED1E8880028CBD16EE0E1
:1018100079E0002802D0E08F012862D1E08F012812
:1018200007D921683088C860E08F801EE087B61C29
:1018300057E0216830780873E08F401EE087761CFF
:101840004FE00098002818D0E08F002815D02068BD
:101850008168890711D5E18F012906D93188C160D6
:10186000E08F801EE087B61C05E031780173E08FC1
:10187000401EE087761C00200090E888002824D0D5
:1018800020688168C90720D0E988012912D9C06879
:10189000059908800598801C0590E888801EE880DE
:1018A000E88801280FD820684168012212031143FB
:1018B000416008E0017B059801700598401C059087
:1018C000E888401EE880012000900C98401C08D059
:1018D000FFF7E4F80199401A0C99884201D30327D5
:1018E00012E0E08F0028ACD1E8880028A9D120467A
:1018F000019A0C9901F059F8002801D020202066A7
:10190000206E002800D0012701206877002028776A
:101910003846F8E6094910B5401E884201D9012031
:1019200010BD074C60610321081F00F01FFF00205D
:10193000A06107202061002010BD0000FFFFFF0014
:1019400000E000E070470000F8B503680446D9697C
:1019500018680D072D0F07D18A0605D5820603D515
:10196000204601F0D5F9F8BD9A68002D64D0D5075E
:10197000ED0FFF26213606402E435DD0CE0706D060
:10198000C60504D501261E62E36E3343E3668F0766
:1019900002230426002F06DAD70704D027683B620B
:1019A000E76E3743E7664F0706D5D20704D02268B3
:1019B0001662E26E1A43E2660A0709D52022024047
:1019C0002A4305D0236808221A62E36E1343E366B4
:1019D000E26E002AC7D0890604D5800602D52046CB
:1019E00001F096F9E06E000703D420688068400695
:1019F0001CD5204601F070F920688168490611D590
:101A00008168402291438160606E00280AD01249AB
:101A10004163606EFEF7ACFE0028A4D0606E416B9F
:101A20008847F8BD2046FFF78DFFF8BD2046FFF739
:101A300089FF0020E066F8BD0A0605D5020603D539
:101A4000204601F02DFAF8BD4906FCD54006FAD52E
:101A5000204601F050F9F8BDC52C000870B504000F
:101A600005D025466035687A002802D006E00120BE
:101A700070BD00202872204600F026F824206872ED
:101A800020680168490849000160204601F07EF99C
:101A90000128EDD0606A002802D0204601F0A4F8A9
:101AA000206841680122D202914341602068816828
:101AB000082291438160206801680122114301607E
:101AC000204601F0F6F870BD10B586B0044614212A
:101AD0006846FEF722FB17492068884227D116483E
:101AE0008269012189030A43826182690A40059261
:101AF0004269C9000A4342614069084005900320D9
:101B000040020090022001900020029003200390E8
:101B10000120049009206946C006FEF70BFF002251
:101B200011461B20FFF7CAF91B20FFF7BDF906B0CD
:101B300010BD000000380140001002407047FFB5A2
:101B4000064604466036707A83B00D46202858D188
:101B5000002D0CD00598002809D00120A1680003B1
:101B6000814207D12069002804D1E80702D0012072
:101B700007B0F0BD307A012843D001203072002038
:101B8000E06621207072FEF789FF019027464037FA
:101B9000059838820598788218E0788A401E788205
:101BA00006980090002280212046019B01F0ABF9AD
:101BB000002818D10120A1680003814202D12069C8
:101BC000002812D02168287808856D1C788A0028A2
:101BD000E3D106980090002240212046019B01F0AD
:101BE00092F9002808D00320C2E728882168C005A0
:101BF000C00D0885AD1CE9E720207072002030720E
:101C0000B6E70220B4E77047FEE7000010B50648CB
:101C1000006880694005400F034802D0FEF78FFF3F
:101C200010BDFEF7B8FF10BDD000002010B5406A0F
:101C300001684A680123DB031A434A60826B002172
:101C40005163C26B5163014640314A78602A02D029
:101C5000FEF7A9FF10BD20224A70FEF76EFF10BDEF
:101C6000F0B503460022CE0740332824B025002ECD
:101C700005D05E7842222746B74300D0F2228E0775
:101C800005D544265B7832439C4300D02A434B075A
:101C900001D5B8231A4311238B4301D190231A4352
:101CA00012238B4301D160210A43006801689143EC
:101CB00001600020F0BD01688A69D243920701D417
:101CC00000228A6200688169C943C90703D081691B
:101CD0000122114381617047F8B50546044640353D
:101CE000687828218143206804D00821C161002040
:101CF0002870F8BD8169C903CF0F8169FE230E0CDE
:101D000081681E408A05C168920D19408C46E168C1
:101D1000022912D10621D3090E400B409E420BD15D
:101D2000A16C491CA164A16C0229E2D10021A1642B
:101D30000823C361297007E0664604212046FFF7A7
:101D40008FFF00202870324639462046FEF7F6FE07
:101D5000F8BD0000F8B50026054640350446AE70D3
:101D60002C48E0626685606C0843606468782027D0
:101D7000282823D06878292820D068782A281DD0E0
:101D800007212046FFF76CFF6878602800D06F704D
:101D900026636663206801684A041F49026817D5F4
:101DA00001239B039A430260A06B41632E70A06BDA
:101DB000FEF7DEFC00281DD0A06B19E003212046B1
:101DC000FFF74EFF28206870266314486063E1E740
:101DD000120410D502680123DB039A430260E06B12
:101DE00041632E70E06BFEF7C3FC002802D0E06B6D
:101DF000416B8847F8BD6878602804D02E70204673
:101E0000FEF7D1FEF8BD6F702E702046FEF795FEEE
:101E1000F8BD00000000FFFF2D1C00089520000801
:101E200070B504461548E06200252563202220464F
:101E300040300646427085706563480711D52068BA
:101E4000416A606A421C62620170208D002808D0DD
:101E5000401E2085608D401E6085606C0421084313
:101E6000606407212046FFF7FBFE21681020C8614F
:101E700035702046FEF7F2FE70BD00000000FFFF47
:101E8000F8B50446006820260F46C6612168082080
:101E9000C86107212046FFF7E3FE20684168B202CF
:101EA00011434160206841682D4A1140416020463D
:101EB000FFF701FF206801682546490440350029E5
:101EC00002DB0168090406D5697821292FD0E16B6E
:101ED000096849686185628D0421002A02D0626C1C
:101EE0000A4362647A070FD5426A606A431C6362E0
:101EF0000270208D002807D0401E2085608D401E76
:101F00006085606C0843606400202063A870606393
:101F1000616C00290DD0616C2046FFF71BFF6878CB
:101F2000282803D139462046FFF77AFFF8BDA16B78
:101F3000CEE7E26A0B498A4206D0E1626E702870F1
:101F40002046FEF78BFEF8BD69786E702229287056
:101F5000204602D0FEF769FFF8BDFEF765FFF8BD29
:101F600000E800FE0000FFFF70B500260446403484
:101F70000546A6706178282029290ED061782A2983
:101F80000AD160702220286302212846FFF768FEEC
:101F900026702846FEF748FF70BD60702120286338
:101FA00001212846FFF75CFE26702846FEF73DFF1C
:101FB00070BD0000F7B5044600680E468069C04356
:101FC000C0062CD420272546403520688069C043B0
:101FD00080060FD5701CF8D0002E05D0FEF75EFDF0
:101FE0000299401AB042F0D96F700020A870287092
:101FF0000320FEBD21681020C8612068C76120460B
:10200000FFF759FE20684168064A114041600420EC
:1020100060646F700020A87028700120FEBD002051
:10202000FEBD000000E800FEF8B50446012016469B
:1020300040031D46DAB2C3020090079F204600F01D
:10204000B5F83A462046069900F00DF9002803D06D
:10205000606C04281BD018E02846F5B2012809D08E
:102060002168300A88623A462046069900F0FBF85B
:102070000028EDD12068856200970022802120464B
:10208000069B00F0A5F8002800D00320F8BD012031
:10209000F8BD0000F8B505460446403528781646D8
:1020A0000F46012811D0012028703F49F8062DD590
:1020B000F0062BD5628D1020002A08D02168C86157
:1020C000606C04210843606462E00220F8BDE36AAA
:1020D00001225206934202D0E36A934202D16A7807
:1020E000282A08D0E26A8A4202D06978292907D0D2
:1020F0002168C8614CE039462046FFF791FE47E071
:102100002168C8612046FFF7D6FD3EE0780717D565
:10211000700715D5608D00280BD02068426A606A70
:10212000431C63620270208D401E2085608D401E1E
:102130006085608D00282BD1E06A884225D127E098
:10214000380706D5300704D539462046FFF7C4FDC9
:102150001EE0B8071CD5B0071AD5608D00280CD03A
:10216000606A411C6162216800788862608D401E4F
:102170006085208D401E20850AE0E06A0121090665
:10218000884202D0E06A002802D12046FFF7ECFE28
:10219000B80605D5B00603D539462046FFF770FED0
:1021A00000202870F8BD00000000FFFF70B5056832
:1021B000049C68688905890D1204044E1143194373
:1021C000304021430143696070BD0000009800FC6D
:1021D000F8B51C4617460E46054611E0601C0FD0A8
:1021E000002C05D0FEF75AFC0699401AA04207D9E8
:1021F0002020403568700020A87028700320F8BDAA
:10220000286881693046884304D00020B842E5D070
:102210000020F8BD0120F9E770B516460D460446CA
:102220001AE0324629462046FFF7C4FE002801D0B6
:10223000012070BD002D04D0FEF730FC801BA842A9
:102240000AD9616C20200143616440346070002031
:10225000A0702070032070BD20688069C043800694
:10226000DFD4002070BD70B516460D4604461CE054
:10227000324629462046FFF79DFE002801D0012066
:1022800070BD681C11D0002D04D0FEF707FC801B28
:10229000A8420AD9616C2020014361644034607017
:1022A0000020A0702070032070BD20688069C043AA
:1022B0008007DDD4002070BD10B5134C40212046AE
:1022C000FEF7DCFB002806D080212046FEF7D6FB77
:1022D00000280BD013E01420FEF71DFB4021204600
:1022E000FEF7CCFB00280AD1012010BD1420FEF718
:1022F00012FB80212046FEF7C1FB002801D0002000
:1023000010BD022010BD000000140048FEB50024DE
:102310002749284800940194029412C010210125F5
:10232000042672C004604460FF2102468560C23109
:102330001032C46032C2C5611838FEF7C1F80028F7
:1023400001D0FDF7C7FF0120000301900520029096
:10235000009469461748FDF7BFFF002801D0FDF73C
:10236000B9FF694613480095FDF7B6FF002801D074
:10237000FDF7B0FF0220009069460E48FDF7ACFF64
:10238000002801D0FDF7A6FF032000906946094808
:10239000FDF7A2FF002801D0FDF79CFF6946054824
:1023A0000096FDF799FF002801D0FDF793FFFEBDD1
:1023B000002401404000002008B50848416901227E
:1023C00011434161406910400022009011460920EC
:1023D000FEF774FD0920FEF767FD08BD00100240FE
:1023E000F0B587B014216846FDF797FE264842698C
:1023F0000121C9040A43426142690A4005924269C7
:10240000C9000A43426142690A4005924269491182
:102410000A43426142690A400592426949000A43FF
:1024200042614069194F08404C1105900022214635
:102430003846FEF72CFB164E002231461548FEF7B3
:1024400026FB012500940024019502956946384633
:102450000394FEF76FFA019569460E4800960295BF
:102460000394FEF767FA04206A4631C269460948B8
:10247000FEF760FAC0206A4631C269460648FEF798
:1024800059FA07B0F0BD00000010024000080048F3
:1024900083E30000000400480014004810B513480E
:1024A000114901601249416000218160016141616F
:1024B00081610122C161C2600162FEF775FB0028E3
:1024C00001D0FDF707FF00210848FEF7EDFA0028CC
:1024D00001D0FDF7FFFE00210448FEF70AFB0028AB
:1024E00001D0FDF7F7FE10BD00540040D0000020E1
:1024F0000E09002010B511480F490160FF21053178
:10250000416000210722816012020161C260012244
:10251000416152028261016210224162C2618162A4
:102520000722C262016308214163FFF73DF80028DA
:1025300001D0FDF7CFFE10BD003001401C0100208E
:1025400010B50C480A490160E121490241600021AF
:102550008160C16001618161C1610C2201624261DF
:102560004162FFF77BFA002801D0FDF7B3FE10BDF2
:102570000038014080010020704700001CB50EA10A
:1025800003C90191009005226946302000F0B4F89B
:1025900005226946102000F013F8002069460A5C05
:1025A000A52A03D1401CC0B20528F8D3052801D0C4
:1025B00001201CBD00201CBDA5A5A5A5A5000000EF
:1025C000F8B515460F460446002202210B48FEF7D7
:1025D0005EFA204600F0D0F90646002405E0FF2010
:1025E00000F0CAF93855641CE4B2AC42F7D30122BA
:1025F00002210248FEF74BFA3046F8BD00040048BD
:1026000070B50A4D0446002202212846FEF73FFA23
:10261000204600F0B1F9FF2000F0AEF90446012297
:1026200002212846FEF733FA204670BD0004004818
:1026300010B5174C002201212046FEF728FA05228A
:102640001449302000F058F812490522491D2A206B
:1026500000F052F80121212000F06EF80121222023
:1026600000F06AF81F21242000F066F828212520B8
:1026700000F062F80F21262000F05EF80E212020E5
:1026800000F05AF8012211462046FEF700FA10BD6C
:1026900000040048643B000870B5164C0546002253
:1026A00001212046FEF7F3F908222946A02000F078
:1026B00023F8012211462046FEF7E9F904212046BD
:1026C000FEF7DCF90028F9D10720FFF799FF04464F
:1026D0000146272000F030F8E00605D5FF21E12073
:1026E00000F02AF8102070BDA00601D5202070BD92
:1026F000FF2070BD00040048F8B516460D4604469C
:10270000002202210B48FEF7C2F9204600F034F9FE
:102710000746002405E028786D1C00F02DF9641CA4
:10272000E4B2B442F7D3012202210248FEF7AFF926
:102730003846F8BD0004004870B50B4D0E460446FF
:10274000002202212846FEF7A2F9204600F014F9E3
:102750000446304600F010F9012202212846FEF717
:1027600096F9204670BD0000000400488307FF2250
:10277000DB0E9A408907090E994000280BDA000702
:10278000000F0838830808489B001818C369934352
:102790000B43C3617047830804489B001B181868EB
:1027A000904308431860704700ED00E000E400E04B
:1027B00070B500242046B030C0B200F0ABF8002065
:1027C00000F0A8F8102000F0A5F80025002000F087
:1027D000B5F86D1CEDB2802DF8D3641CE4B2082C62
:1027E000E8D370BD10B58D2000F094F8142000F0EF
:1027F00091F8AF2000F08EF810BD10B5C820FEF79C
:102800008AF800F0B9FB10BD10B50446B031C8B26B
:1028100000F080F82009103000F07CF82007000F4D
:1028200000F078F810BD0000FFB581B0203A0198A3
:1028300000240D46D6B27F2803D900208D1CEDB2AE
:102840000190102B29460ED0FFF7DEFF06204643ED
:1028500013483518285D00F071F8641CE4B2062CAA
:10286000F8D305B0F0BDFFF7CFFF37010D4E381993
:10287000305C00F063F8641CE4B2082CF7D36D1CE4
:10288000E9B20198FFF7C0FF002438198019007AD7
:1028900000F054F8641CE4B2082CF6D3E1E7000021
:1028A0004C33000874350008FFB581B000270A9842
:1028B0001D463C46460829E0281B401EC1B20A209E
:1028C00000F02EFD01460398FDF70AFC0A21FDF7F2
:1028D00007FC002F05D1681E844202DA002909D0C6
:1028E00001273031CAB23046019960434018C0B266
:1028F0000A9B06E030460199604340180A9BC0B22B
:1029000020220299FFF790FF641CE4B2AC42D3D3BB
:1029100005B0F0BD01B584B0FF220121013204A849
:102920000B46029201910090002278210248FEF7A6
:1029300097F905B000BD0000D000002001B584B0BB
:10294000FF220121013204A80B460292019100905E
:10295000402278210248FEF783F905B000BD00004F
:10296000D00000207047000010B50248FEF7B2FD0D
:1029700010BD00001C01002001B582B07D20C00008
:102980000090012301AA02A90248FEF79FFE6846B3
:1029900000790EBD1C01002010B5406A00214622BE
:1029A0001152C187FEF794FD10BDF8B50F460B46D6
:1029B00015460092032104460022C90200F01BF8CC
:1029C0002026002812D13B46002280212046009577
:1029D00000F05CF8002809D103213B46002249029F
:1029E0002046009500F007F8002803D0206E304301
:1029F00020660320F8BDF8B51D4617460E4604466E
:102A00003DE0032149028E4205D1002F03D1017B15
:102A1000684601700078681C31D0002D05D0FEF7A3
:102A20003DF80699401AA84229D320684168E0225F
:102A3000914341606068C11FFD390CD10121A0683C
:102A4000C903884202D04911884204D12068016834
:102A50004022914301600120A16A4003814207D1D5
:102A600021680A6882430A6021680A6802430A6092
:102A7000012040346077002020770320F8BD2068D3
:102A800081683140B942BCD10020F8BDF8B51D467F
:102A900017460E46044633E0681C31D0002D05D0A1
:102AA000FDF7FCFF0699401AA84229D32068416827
:102AB000E022914341606068C11FFD390CD10121C2
:102AC000A068C903884202D04911884204D1206815
:102AD00001684022914301600120A16A40038142C4
:102AE00007D121680A6882430A6021680A680243A4
:102AF0000A60012040346077002020770320F8BD71
:102B0000206881683046884304D00020B842C3D191
:102B10000020F8BD0120F9E7704710B5FEF786F9EF
:102B200010BD30B595B030216846FDF7F6FA0024A7
:102B30000F941320009001200D9412941094039090
:102B40000190059010200E941394069004900003B9
:102B5000099000010C9402250A90119408950B9499
:102B60006846FEF70BFB07200C900E9401210D9593
:102B70000F940CA8FEF71AFA2120109012941394C7
:102B800010A8FEF79FF915B030BD0000134801688A
:102B90000122114301604168114A114041600168FE
:102BA000104A1140016001680122920491430160C2
:102BB00041683F22120491434160C16A0909090139
:102BC000C162016BFF22143291430163416B4908DA
:102BD00049004163002181607047000000100240FD
:102BE0000CB8FF08FFFFF6FE10B5818CC90707D0AF
:102BF00001684A6801235B049A43836A1A434A6066
:102C0000818C890707D501684A6801231B049A4310
:102C1000C36A1A434A60818C490707D501684A682C
:102C200001239B049A43036B1A434A60818C090772
:102C300007D501684A680123DB039A43436B1A43B3
:102C40004A60818CC90607D50268916801231B037D
:102C50009943836B19439160818C890607D501687C
:102C60008A6801235B039A43C36B1A438A60818C91
:102C7000490612D503685A6801210905046C8A4384
:102C800022435A60026C8A4207D1026851680323CA
:102C90005B059943436C19435160818C090607D544
:102CA00001684A680123DB04806C9A4302434A604E
:102CB00010BD0021C1662022603042728272017212
:102CC0000846704710B5406A0022014640314A83E9
:102CD0004A82FEF737FE10BD01680A68FF232133E0
:102CE0009A430A6001688A68520852008A6020216B
:102CF00060308172704710B501680A6840239A43BA
:102D00000A60202269210A54FEF77DFF002010BDD1
:102D100070B50246403203466033948B9D7A016859
:102D2000222D05D08869082210438861022070BDD9
:102D3000898C012685683603B54202D10569002DCC
:102D40000BD02140446D651C45652170518B491E97
:102D50000904090C518307D015E0456D21402980F5
:102D6000416D891C4165F1E701680A68FF2421343F
:102D7000A2430A6001688A68520852008A602021D2
:102D80009972FEF7DBFE002070BD0000F8B5044626
:102D90002369A268E6691A4363691021334300205E
:102DA00026681A4333680546394F3B401343336066
:102DB00023685A6803263603B243E66832435A60F2
:102DC000236AA26926681A43B3680B273F02BB43F4
:102DD0001343B3602F4A126B9207920F06D0012A59
:102DE00008D0022A08D0032A07D101E0002104E01C
:102DF000022102E0042100E008210122E369D2035C
:102E0000934224D100290CD002290DD0042913D0DB
:102E1000082917D00125010909010007400F0843BF
:102E200032E0FEF75FF909E061681B4A4808801844
:102E3000FDF756F980B2EEE7FEF764F961684000ED
:102E40004A08F4E76168012248081204EFE7002904
:102E500008D0022909D004290BD008290ED0012559
:102E60002846F8BDFEF73EF905E061680B4A4808C0
:102E700006E0FEF747F961684A0801E06168480822
:102E80008018FDF72DF980B22168C860E8E70000DE
:102E9000F369FFFF001002400024F40000127A00E2
:102EA0006921095C212901D0022070470246403285
:102EB000518A002912D0012381681B03994202D153
:102EC0000169002915D0C16C4B1CC36400680978E6
:102ED0000185508A401E50820020704701680A68B0
:102EE00080239A430A600068016840221143016010
:102EF000F2E7C16C03680988C905C90D1985C16C61
:102F0000891CC164E5E7FFB581B017460E4604464B
:102F10000A9D1DE0681C1BD0002D05D0FDF7BEFDED
:102F20000499401AA84213D920680168FF22A132EF
:102F30009143016020688168490849008160202030
:102F400060346072A07200202072032005B0F0BDD2
:102F50002068C1693046884304D00020B842D9D0E7
:102F60000020F3E70120F9E710B50248FEF7ECFC7A
:102F700010BD000080010020FEB5FF2500240135B2
:102F8000084F01263819009001230022782101966C
:102F900002950548FDF764FE641CE4B21B2CF1D3D6
:102FA000FEBD000020000020D00000200FB410B5AE
:102FB00003A9044B044A029800F018F810BC08BC9E
:102FC00004B018473D3100083C00002002E008C86A
:102FD000121F08C1002AFAD170477047002001E093
:102FE00001C1121F002AFBD170470000FFB58DB050
:102FF0000446002506E025280AD0109A0F9990472C
:10300000641C6D1C20780028F5D1284611B0F0BD55
:1030100000270121484A009700E00743641C2378F9
:103020000846203B98401042F7D120782E2817D12F
:10303000042007436078641C2A280CD10E98641C75
:1030400002C800910E900BE000990A2251433039DA
:103050004018641C00902078014630390929F3D9C2
:1030600020780028D1D0642808D0692806D0752897
:103070001ED0109A0F9990476D1C5BE00A200E99A4
:10308000019001C90E91002802DA40422D2102E090
:10309000390504D52B216A461172012103E0F90795
:1030A00004D02021F7E70BAE0B910DE00021FAE7E9
:1030B0000A200E99019001C90E91F7E70199FDF7D9
:1030C0000FF83031761E31700028F7D103A8801B2D
:1030D00020300190780701D5009801E00120009090
:1030E0000199884201DD401A00E00020002700908D
:1030F00006E002A8109AC05D0F9990476D1C7F1CD6
:103100000B988742F5DB04E0109A30200F99904726
:103110006D1C0099481E00900029F5DC05E0307810
:10312000109A761C0F9990476D1C0199481E0190CA
:103130000029F4DC641C65E70928010013B57D2330
:10314000DB00012269460248FEF7F9FC00981CBD2D
:103150008001002008B5FDF771FEFFF7E2FCFFF7E4
:103160003FF9FFF729F9FFF7D1F8FFF797F9FFF7D4
:10317000C1F9FFF7E5F9FFF740FBFFF733FBFFF776
:1031800017FB0124434D6403002221462846FDF726
:103190007EFC09E040A0FFF709FF21462846FDF725
:1031A00072FCC820FDF7B7FBFFF7E8F90028F1D162
:1031B00041A0FFF7FBFEFFF73BFA0122214628461C
:1031C000FDF765FC454F3E1F34460C34FFF774F89D
:1031D0002070052241494248FDF77AFA0A20FDF79E
:1031E0009AFB3868010E2171010CE170010AA1708F
:1031F00060703C4978684843000A00253060625D91
:10320000294639A0FFF7D2FE6D1CEDB2052DF6D38D
:1032100038A03168FFF7CAFE052530480830FFF7AF
:103220003BFA202832D06D1E2D062D0EF5D110252B
:1032300000950021227801230846FFF735FB009511
:103240006278032302210020FFF72EFB0095A2786D
:10325000032302212020FFF727FB0095E2780323B8
:1032600004210020FFF720FB00952279032304218D
:103270002020FFF719FB20780128A7D11F492048FB
:10328000FDF701FC6420FDF746FB9FE71DA0FFF75B
:103290008DFECCE700080048534932345231206992
:1032A0006E697469616C697A6174696F6E206661B8
:1032B000696C6564210D0A0053493234523120692A
:1032C0006E697469616C697A6174696F6E20737577
:1032D0006363656564210D0A00000000040000209E
:1032E00040000020E40C00004461746125643A2031
:1032F00025640900563A202564090A0080E300008D
:1033000000040048446174612073656E7420737515
:10331000636365737366756C6C79210D0A00000038
:103320000246012000E050430B46491EC9B2002B63
:10333000F9D1704700000000000000000102030402
:103340000607080900000000010203040000000055
:1033500000000000002F000000000700070000141C
:103360007F147F1400242A7F2A120062640813232A
:1033700000364955225000000503000000001C22C1
:103380004100000041221C000014083E08140008FF
:10339000083E0808000000A06000000808080808AF
:1033A000000060600000002010080402003E514947
:1033B000453E0000427F40000042615149460021E5
:1033C00041454B31001814127F10002745454539FF
:1033D000003C4A494930000171090503003649495A
:1033E000493600064949291E000036360000000013
:1033F000563600000008142241000014141414145E
:103400000000412214080002015109060032495906
:10341000513E007C1211127C007F49494936003E22
:1034200041414122007F4141221C007F49494941DD
:10343000007F09090901003E4149497A007F0808D7
:10344000087F0000417F4100002040413F01007F94
:1034500008142241007F40404040007F020C027F60
:10346000007F0408107F003E4141413E007F090972
:103470000906003E4151215E007F09192946004698
:10348000494949310001017F0101003F4040403F6F
:10349000001F2040201F003F4038403F00631408B9
:1034A0001463000708700807006151494543000094
:1034B0007F41410000552A552A55000041417F00B7
:1034C00000040201020400404040404000000102AC
:1034D0000400002054545478007F48444438003895
:1034E0004444442000384444487F0038545454181D
:1034F00000087E0901020018A4A4A47C007F08042F
:1035000004780000447D4000004080847D00007FFE
:10351000102844000000417F4000007C041804781B
:10352000007C0804047800384444443800FC242417
:1035300024180018242418FC007C080404080048FF
:103540005454542000043F444020003C4040207C20
:10355000001C2040201C003C4030403C004428100F
:103560002844001CA0A0A07C004464544C441414C3
:1035700014141414000000000000000000000000FB
:1035800000000000000000F8000000000000003310
:103590003000000000100C06100C060000000000B7
:1035A0000000000040C07840C0784000043F0404A0
:1035B0003F040400007088FC08300000001820FF61
:1035C000211E0000F008F000E018000000211C039C
:1035D0001E211E0000F00888700000001E21232418
:1035E0001927211010160E00000000000000000036
:1035F00000000000000000E01804020000000007C6
:103600001820400000020418E000000000402018CC
:1036100007000000404080F0804040000202010F9F
:1036200001020200000000F0000000000101011F83
:1036300001010100000000000000000080B07000E7
:103640000000000000000000000000000001010177
:103650000101010100000000000000000030300006
:1036600000000000000000008060180400601806E0
:103670000100000000E010080810E000000F10201A
:1036800020100F00001010F8000000000020203F64
:1036900020200000007008080888700000302824EE
:1036A000222130000030088888483000001820208F
:1036B00020110E000000C02010F8000000070424B4
:1036C000243F240000F808888808080000192120F9
:1036D00020110E0000E0108888180000000F112053
:1036E00020110E0000380808C83808000000003F0C
:1036F000000000000070880808887000001C22216B
:1037000021221C0000E010080810E0000000312217
:1037100022110F00000000C0C000000000000030B7
:103720003000000000000080000000000000806009
:10373000000000000000804020100800000102048A
:103740000810200040404040404040000404040471
:10375000040404000008102040800000002010082D
:1037600004020100007048080808F0000000003062
:1037700036010000C030C828E810E00007182724F0
:1037800023140B000000C038E0000000203C23029E
:103790000227382008F8888888700000203F202001
:1037A00020110E00C0300808080838000718202033
:1037B0002010080008F808080810E000203F20202A
:1037C00020100F0008F88888E8081000203F20200B
:1037D0002320180008F88888E8081000203F2000FF
:1037E00003000000C0300808083800000718202037
:1037F000221E020008F808000008F808203F2101F6
:1038000001213F20000808F8080800000020203FA0
:103810002020000000000808F8080800C080808010
:103820007F00000008F888C028180800203F200109
:103830002638200008F8080000000000203F202063
:103840002020300008F8F800F8F80800203F003F7A
:10385000003F200008F830C00008F808203F200092
:1038600007183F00E01008080810E0000F102020A3
:1038700020100F0008F808080808F000203F210178
:1038800001010000E01008080810E0000F182424CF
:1038900038504F0008F8888888887000203F200042
:1038A000030C3020007088080808380000382021F8
:1038B00021221C00180808F8080818000000203F02
:1038C0002000000008F808000008F808001F202069
:1038D00020201F000878880000C83808000007383A
:1038E0000E010000F80800F80008F800033C07008B
:1038F000073C0300081868808068180820302C03F3
:10390000032C30200838C800C83808000000203FC9
:103910002000000010080808C838080020382621B8
:1039200020201800000000FE020202000000007FBC
:1039300040404000000C30C00000000000000001CA
:103940000638C00000020202FE00000000404040B5
:103950007F000000000004020202040000000000DA
:103960000000000000000000000000008080808057
:10397000808080800002020400000000000000003F
:1039800000000000000080808080000000192422D8
:1039900022223F2008F8008080000000003F112014
:1039A00020110E000000008080800000000E112019
:1039B00020201100000000808088F800000E1120F7
:1039C00020103F200000808080800000001F222205
:1039D00022221300008080F0888888180020203F71
:1039E000202000000000808080808000006B949484
:1039F0009493600008F8008080800000203F210040
:103A000000203F2000809898000000000020203F08
:103A100020200000000000809898000000C08080F6
:103A2000807F000008F8000080808000203F240292
:103A30002D302000000808F8000000000020203F82
:103A4000202000008080808080808000203F200037
:103A50003F20003F8080008080800000203F2100C8
:103A600000203F200000808080800000001F202078
:103A700020201F00808000808000000080FFA120A7
:103A800020110E000000008080808000000E1120B8
:103A900020A0FF80808080008080800020203F2147
:103AA00020000100000080808080800000332424FA
:103AB00024241900008080E0808000000000001FA6
:103AC000202000008080000000808000001F202057
:103AD00020103F20808080000080808000010E3018
:103AE0000806010080800080008080800F300C0379
:103AF0000C300F0000808000808080000020312E7C
:103B00000E312000808080000080808080818E7057
:103B10001806010000808080808080000021302C09
:103B20002221300000000000807C02020000000022
:103B3000003F404000000000FF00000000000000C7
:103B4000FF0000000002027C800000000040403FB7
:103B50000000000000060101020204040000000051
:103B60000000000034431010013443101001000025
:103B7000903B00080000002040000000CC2F00080F
:103B8000D03B000840000020B0050000DC2F0008FA
:103B90000000000000000000000000000000000025
:103BA000000000000000000000127A000000000089
:103BB000AE001040B081FFA1A6A83FC8D300D580B9
:103BC000D805D9F1DA12D8308D14AF00000000000A
:04000005080000B13E
:00000001FF
