:020000040800F2
:1000000000040020CF010008DD010008DF01000826
:10001000E1010008E3010008E5010008000000001C
:10002000000000000000000000000000E7010008E0
:10003000E901000800000000EB010008ED010008E4
:10004000EF010008EF010008EF010008EF010008D0
:10005000EF010008EF010008EF010008EF010008C0
:10006000EF010008EF010008EF010008EF010008B0
:10007000EF010008EF010008EF010008EF010008A0
:10008000EF010008EF010008EF010008EF01000890
:10009000EF010008EF010008EF010008EF01000880
:1000A000EF010008EF010008EF010008EF01000870
:1000B000EF010008EF010008EF010008EF01000860
:1000C000EF010008EF010008EF010008EF01000850
:1000D000EF010008EF010008EF010008EF01000840
:1000E000EF010008EF010008EF010008EF01000830
:1000F000EF010008EF010008EF010008EF01000820
:10010000EF010008EF010008EF010008EF0100080F
:10011000EF010008EF010008EF010008EF010008FF
:10012000EF010008EF010008EF010008EF010008EF
:1001300000F002F800F03AF80AA090E8000C8244BF
:100140008344AAF10107DA4501D100F02FF8AFF29C
:10015000090EBAE80F0013F0010F18BFFB1A43F0A5
:1001600001031847D8100000F8100000103A24BF0F
:1001700078C878C1FAD8520724BF30C830C144BF0C
:1001800004680C607047000000230024002500264E
:10019000103A28BF78C1FBD8520728BF30C148BFEA
:1001A0000B6070471FB51FBD10B510BD00F035F8CE
:1001B0001146FFF7F7FF00F0B1FF00F053F803B46A
:1001C000FFF7F2FF03BC00F05BF8000070470B483C
:1001D00080470B4981F308880A480047FEE7FEE79D
:1001E000FEE7FEE7FEE7FEE7FEE7FEE7FEE7FEE7E7
:1001F00005480649044A064B70470000A10A00085A
:100200000803002031010008080100200803002035
:1002100008010020704770477047754600F02CF8C1
:10022000AE4605006946534620F00700854618B0E3
:1002300020B5FFF7DDFFBDE820404FF000064FF08E
:1002400000074FF000084FF0000B21F00701AC460B
:10025000ACE8C009ACE8C009ACE8C009ACE8C0092A
:100260008D46704710B50446AFF300802046BDE8C8
:100270001040FFF7A4BF000000487047A400002012
:1002800001491820ABBEFEE72600020070472DE9A9
:10029000F04102460025002600200023002400270C
:1002A00091F803C00CF00F0591F803C00CF0100C8E
:1002B000BCF1000F03D091F802C04CEA050591F89B
:1002C00000C0BCF1000F31D0146800202BE04FF0CB
:1002D000010C0CFA00F3B1F800C00CEA03069E42D0
:1002E00020D183004FF00F0C0CFA03F7BC4305FA42
:1002F00003FC4CEA040491F803C0BCF1280F06D1BA
:100300004FF0010C0CFA00FCC2F814C00AE091F89E
:1003100003C0BCF1480F05D14FF0010C0CFA00FCF2
:10032000C2F810C0401C0828D1D31460B1F800C036
:10033000BCF1FF0F34DD546800202EE000F1080C02
:100340004FF0010808FA0CF3B1F800C00CEA0306FC
:100350009E4221D183004FF00F0C0CFA03F7BC43EF
:1003600005FA03FC4CEA040491F803C0BCF1280F21
:1003700005D100F1080C08FA0CF8C2F8148091F8C5
:1003800003C0BCF1480F07D100F1080C4FF0010881
:1003900008FA0CF8C2F81080401C0828CED354602C
:1003A000BDE8F0810161704770B50446002504F096
:1003B000700400F08BF805460A48C06820F0800001
:1003C0000849C860272000F0F7FD44EA050000F066
:1003D000F3FD0448C06840F080000249C86000F0A6
:1003E00075F870BD0020014008B50121080200F039
:1003F00099F910208DF8030001208DF80200000209
:10040000ADF8000069461248FFF741FF4FF48071D4
:100410000F48FFF7C7FF48208DF8030001208DF833
:1004200002004020ADF8000069460948FFF72FFFA1
:1004300040210748FFF7B6FF0548C06820F48070E8
:100440000349C8600846C06840F08000C86008BD25
:10045000002001402DE9F04104460E4617460D48A4
:10046000C06820F080000B49C860204600F0A4FD61
:10047000002505E0FF2000F09FFD7055681CC5B207
:10048000BD42F7DB0348C06840F080000149C86006
:10049000BDE8F0810020014070B504460A48C068FC
:1004A00020F080000849C860204600F085FDFF204C
:1004B00000F082FD05460448C06840F08000024913
:1004C000C860284670BD00000020014010B50948F2
:1004D000C06820F080000749C860072000F06CFD6C
:1004E00004460448C06840F080000249C8602046C5
:1004F00010BD00000020014070B504460E461546B0
:10050000052D01DD052000E028460546052C01DD0E
:10051000052000E02046044604F10A01C8B22A463C
:10052000314600F06DF870BD70B505460C46052CDF
:1005300001DD052000E02046044622462946102021
:1005400000F05EF870BD00002DE9F04105460E4652
:10055000002400272948C06820F080002749C8608F
:10056000E12000F029FD2548C06840F080002349C3
:10057000C8600846C06820F48070C86032462946CA
:10058000A02000F03DF81D48C06840F480701B4971
:10059000C86010E0012000F031FC3846791C8FB2B1
:1005A000B0F5FA7F07D1FFF71FFF00F045F90020F3
:1005B00000F08AF908E01148806800F0400000214E
:1005C00081EA90100028E5D100BF0720FFF764FF03
:1005D00004462146072000F035F804F0100030B141
:1005E000FF21E12000F02EF81020BDE8F08104F09A
:1005F000200008B12020F8E7FF20F6E700200140A6
:100600002DE9F04105460E4617460D48C06820F01A
:1006100080000B49C86045F0200000F0CDFC0024AC
:1006200004E0305D00F0C8FC601CC4B2BC42F8DBE2
:100630000348C06840F080000149C860BDE8F0810F
:100640000020014070B504460D460A48C06820F0FD
:1006500080000849C86044F0200000F0ADFC284646
:1006600000F0AAFC0348C06840F080000149C8605F
:1006700070BD0000002001401FB517A103C9CDE9DE
:10068000020100200090019022E0052202A9102022
:10069000FFF7B6FF052269461020FFF7DBFE0024B6
:1006A00008E002A8005D1DF80410884200D003E0B5
:1006B000601CC4B2052CF4DB00BF052C00D108E09F
:1006C0001A210748006800F011FD042000F026FB05
:1006D000DBE700BF1FBD0000A5A5A5A5A500000084
:1006E0000800002029B1064AD2690243044BDA61AE
:1006F00004E0034AD2698243014BDA61704700008B
:100700000010024029B1064A12690243044B1A61E3
:1007100004E0034A12698243014B1A6170470000EA
:100720000010024029B1064A92690243044B9A61C3
:1007300004E0034A92698243014B9A6170470000CA
:100740000010024029B1064AD2680243044BDA6025
:1007500004E0034AD2688243014BDA60704700002C
:100760000010024030B500210022002400232D4D4E
:100770006D6805F00C0121B1042905D0082923D1A9
:1007800005E0294D056022E0274D05601FE0254D5D
:100790006D6805F47012022505EB9242214D6D68DB
:1007A00005F480341CB9214D554305600BE01D4D07
:1007B0006D6805F400351DB11C4D5543056002E020
:1007C000194D5543056002E0174D056000BF00BF9D
:1007D000144D6D6805F0F0010909154D6B5C056855
:1007E000DD4045600F4D6D6805F4E061090A104D6C
:1007F0006B5C4568DD4085600A4D6D6805F46051AD
:10080000C90A0B4D6B5C4568DD40C560054D6D68E0
:1008100005F44041890B074D6B5CC568B5FBF3F5EA
:10082000056130BD0010024000127A0000093D0051
:100830000C0000201C0000201CB520A103C9CDE93C
:1008400000012048C06840F480701E49C8607020D4
:10085000FFF7AAFD01211C20FFF7F4FE07211D2050
:10086000FFF7F0FE1C20FFF717FE1D20FFF714FE18
:100870000A210020FFF7E6FE01210846FFF7E2FE0D
:1008800001210220FFF7DEFE03210846FFF7DAFE12
:10089000FF210420FFF7D6FE3C210520FFF7D2FE02
:1008A00026210620FFF7CEFE05216846FFF73CFE15
:1008B000052269460020FFF71FFE1CBD34431010BF
:1008C000010000000020014070B504460025002012
:1008D000FFF7E2FD054614B925F0010503E0012C00
:1008E00001D145F0010529460020FFF7ABFE70BDA0
:1008F00021B1028842F04002028004E002884FF6F3
:10090000BF731A400280704710B504461448204453
:1009100078B1B0F5806F16D0B0F5784F1DD10121B8
:100920000803FFF70FFF00214FF48050FFF70AFF85
:1009300014E001218803FFF7E5FE00214FF4804019
:10094000FFF7E0FE0AE00121C803FFF7DBFE00210C
:100950004FF40040FFF7D6FE00E000BF00BF10BD1F
:1009600000C8FFBF0246002013890B400BB10120D5
:1009700000E00020704710B50022028802F44152C6
:100980000B884C8823438C882343CC8823430C89D1
:1009900023434C8923438C892343CC8923431A4323
:1009A0000280838B4FF2FF74234083830B8A038280
:1009B00010BD10B500F002F810BD00000CB500200D
:1009C000019000903448006840F48030324908605B
:1009D00000BF3148006800F4003000900198401CCE
:1009E0000190009818B90198B0F5A06FF1D12A488C
:1009F000006800F4003010B10120009001E00020F8
:100A000000900098012844D12448006840F010006C
:100A1000224908600846006820F003000860084684
:100A2000006840F0020008601B4840681A494860AE
:100A30000846406848600846406840F48060486066
:100A40000846406820F47C1048600846406840F43E
:100A5000E81048600846006840F08070086000BFF9
:100A60000D48006800F000700028F9D00A4840687E
:100A700020F00300084948600846406840F0020042
:100A8000486000BF0448406800F00C000828F9D115
:100A900001E000BFFEE70CBD001002400020024054
:100AA00010B51048006840F001000E490860084683
:100AB00040680D4908400B494860084600680B49EA
:100AC0000840084908600846006820F48020086053
:100AD0000846406820F4FE00486000208860FFF768
:100AE00068FF10BD001002400000FFF8FFFFF6FE97
:100AF000CA430282704721B1028842F0010202809B
:100B000004E0028840F2FE331A4002807047024639
:100B10000020138A0B400BB1012000E00020704739
:100B200081847047028802F08F020280CA884B8855
:100B30001A4303881A4302808A8882850A880285BC
:100B4000054A904202D0054A904201D10A7A0286B3
:100B50000122828270470000002C014000340140D5
:100B600021B1828942F40052828104E082894DF6EB
:100B7000FF731A408281704710B504462349601AFA
:100B80008C422BD006DC2248204498B1B0F5806F0F
:100B900038D119E0B0F5806F2AD0B0F56C4F31D163
:100BA00001218803FFF7CEFD00214FF48040FFF7BD
:100BB000C9FD28E001214804FFF7A4FD00214FF4FE
:100BC0000030FFF79FFD1EE001218804FFF79AFD2A
:100BD00000214FF48020FFF795FD14E00121C804A7
:100BE000FFF790FD00214FF40020FFF78BFD0AE096
:100BF00001210805FFF786FD00214FF48010FFF763
:100C000081FD00E000BF00BF10BD0000004C0040AF
:100C100000BCFFBF0246002013880B400BB101202F
:100C200000E00020704700002DE9F04786B005463F
:100C30000E460024A24600BF00BF00272F462C8A84
:100C40004CF6FF700440F08804432C82AC894EF6C9
:100C5000F3100440B0883189084371890843044384
:100C6000AC81AC8A4FF6FF400440B0890443AC82AB
:100C700001A8FFF777FD1248874202D1DDF810A0E6
:100C800001E0DDF80CA00AEBCA0000EB0A103168A5
:100C90008900B0FBF1F86420B8FBF0F004012009F2
:100CA000642101FB1089322000EB0910B0FBF1F048
:100CB00000F00F0004432C8106B0BDE8F08700006F
:100CC0000038014010B50948006800F010001028F5
:100CD0000AD0322000F092F80448006800F01000BA
:100CE000102801D0012010BD0020FCE708180140A9
:100CF00008B501214020FFF715FD48208DF80300BD
:100D000002208DF802001020ADF80000694602486C
:100D1000FFF7BDFA08BD00000018014000B503460A
:100D20001DE0322000F06AF8322000F067F832202F
:100D300000F064F8322000F061F8322000F05EF834
:100D4000322000F05BF8322000F058F8322000F03A
:100D500055F8322000F052F8322000F04FF8181EFB
:100D6000A3F10101CBB2DCD100BD000000B589B018
:100D700001A8FFF7F7FC01210846FFF7B3FC0020AC
:100D8000ADF81E00ADF81A00FF20ADF81C000020E1
:100D90008DF8200018490398B0FBF1F0401E80B296
:100DA000ADF8180006A94FF08040FFF7BBFE012107
:100DB0008807FFF79DFE00214FF08040FFF7B0FE4F
:100DC00001218807FFF797FE00BF01218807FFF781
:100DD0009EFE0028F9D000214FF08040FFF78BFEE7
:100DE00000214FF08040FFF79BFE01218807FFF7AD
:100DF0007FFE09B000BD000040420F0000EB400143
:100E0000C1EBC0114FF6FF7202EAC1014FF0804200
:100E10009185002191841146098841F001011180DA
:100E200000BF4FF08041098A01F001010029F8D08C
:100E30004FF08041098A21F001014FF08042118278
:100E40001146098821F001011180704730B9074926
:100E5000096881F02001054A116005E0044909682C
:100E600081F02001024A1160704700000C0C014023
:100E70000C18014008B501214820FFF753FC102051
:100E80008DF8030002208DF802002020ADF800004C
:100E900069460948FFF7FBF920210748FFF782FA66
:100EA0002020ADF8000069460448FFF7F0F9202142
:100EB0000248FFF777FA08BD000C01400018014016
:100EC00010B5044624B920210448FFF76BFA03E06B
:100ED00020210348FFF766FA10BD0000000C014016
:100EE0000018014000B587B001214FF48470FFF76E
:100EF00019FC01208DF81A0018208DF81B004FF402
:100F00000050ADF8180006A92848FFF7C0F94FF4C3
:100F10000040ADF8180006A92448FFF7B8F94FF4CF
:100F20008040ADF8180006A92048FFF7B0F910205E
:100F30008DF81B008020ADF8180006A91C48FFF7AB
:100F4000A6F980211A48FFF72DFA1A48FFF7DCFCB2
:100F500001218803FFF7C6FB00211648FFF7C8FCF4
:100F60000020ADF804004FF48270ADF806000020B8
:100F7000ADF80A00ADF80C00ADF808004FF40070B1
:100F8000ADF80E002820ADF810000020ADF81200DA
:100F90000720ADF8140001A90648FFF7ECFC012179
:100FA0000448FFF7A5FC07B000BD0000000C01409D
:100FB000002001400038004070B50446002600259E
:100FC00007E0681C80B205464FF6FF71884200D1E9
:100FD00005E002211048FFF7C5FC0028F1D000BF52
:100FE00047F6FF750C480C30048007E0681C80B29F
:100FF00005464FF6FF71884200D105E00121064801
:10100000FFF7B0FC0028F1D000BF03480C30008887
:10101000C6B2304670BD00000038004010B586B042
:10102000044601210420FFF77DFB18208DF81700EE
:1010300002208DF816000002ADF8140005A918482A
:10104000FFF725F904208DF817000002ADF8140011
:1010500005A91348FFF71BF91248FFF78DFD012181
:101060008803FFF75FFB01940020ADF810000C200F
:10107000ADF80E000020ADF80C00ADF80A00ADF898
:10108000080000210748FFF76BFD01A90548FFF79D
:10109000CBFD01210348FFF763FD06B010BD000042
:1010A000000801400038014070B50446002547F6AD
:1010B000FF7610E020210C48FFF7ACFD40B10A4854
:1010C000001D00882070641C681CC5B247F6FF76BE
:1010D000642D00D104E0301EA6F101018EB2E9D1E9
:1010E00000BF284670BD00000038014070B50446BE
:1010F0000D460BE000BF80210748FFF78BFD00285D
:10110000F9D020780449091D0880641C281EA5F127
:101110000101CDB2EED170BD0038014000244FF482
:101120001650FFF77BFFFFF721FEFFF7A3FEFFF747
:10113000D9FEFFF759F9FFF79FFAFFF77DFB002073
:10114000FFF7BEFE0120FFF7BBFE00BF0AE0002054
:10115000FFF77CFE0120FFF779FE0120FFF7DEFD9F
:10116000601CC4B2062CF2DBFFF7C2FD0020FFF7C3
:10117000ABFB49E0FFF7A6FD012827D12348007803
:10118000C0F10100214908700120FFF799FE0020FD
:10119000FFF796FE1D48007860B9002407E00020A4
:1011A000FFF754FE0120FFF7B9FD601CC4B2062C06
:1011B000F5DB0BE0002407E00120FFF747FE0120EC
:1011C000FFF7ACFD601CC4B2062CF5DB0F480078BD
:1011D00070B908210E480068FFF7B6F90120FFF743
:1011E0009DFD0120FFF79AFD0020FFF72FFE0BE089
:1011F0000848FFF759FF044634B121460548FFF778
:10120000A3F90020FFF722FEB4E70000040000204D
:101210000000002020000020676973656D690000F0
:10122000524632344C3031206973206E6F74206620
:10123000696E6420212E2E2E000000005C12000832
:1012400000000020200000006C0100087C12000853
:1012500020000020E80200008801000818120008A1
:10126000000000002012000800000000010203043A
:0C12700001020304060708090204060836
:0400000508000131BD
:00000001FF
