:020000040800F2
:10000000C0060020A901000817380008672400086E
:1000100015380008AF08000825430008000000005C
:10002000000000000000000000000000953B0008F8
:10003000B1080008000000006B3A0008973B000878
:10004000C3010008C3010008C3010008C301000880
:10005000C3010008C3010008C3010008C301000870
:10006000C3010008C3010008C3010008C301000860
:10007000C3010008C3010008C3010008C301000850
:10008000C3010008C3010008C3010008000000000C
:10009000000000000000000000000000C301000894
:1000A000C3010008C3010008C3010008C301000820
:1000B000753C0008C3010008C3010008752400084E
:1000C00069240008C3010008C30100086D3A000854
:1000D000C301000819430008C30100080000000024
:1000E000C3010008C3010008C301000800000000AC
:1000F000000000000000000000000000C301000834
:1001000000000000C3010008C3010008C30100088B
:1001100000000000000000000000000000000000DF
:10012000C3010008C3010008C3010008C30100089F
:10013000C3010008000000000000000000000000F3
:10014000000000000000000000000000C3010008E3
:10015000C3010008C3010008C3010008C30100086F
:10016000C3010008C30100080000000000000000F7
:10017000000000000000000000000000000000007F
:1001800000000000C30100080000000000000000A3
:10019000C3010008DFF80CD000F026FB0048004740
:1001A000B5640008C006002006488047064800479E
:1001B000FEE7FEE7FEE7FEE7FEE7FEE7FEE7FEE717
:1001C000FEE7FEE7213C0008950100082DE9F05FFD
:1001D0000546002092469B468846064681464024B6
:1001E0001BE0284641464746224600F047FA534660
:1001F0005A46C01A914110D311461846224600F0C3
:100200002EFA2D1A67EB01084F46224601200021E5
:1002100000F025FA17EB00094E41201EA4F101045D
:10022000DFDC484631462A464346BDE8F09F2DE9CB
:10023000F0410024061B254671F1000605DA012471
:100240000027D0EB070067EB0101161E73F10006D3
:1002500005DA0027D2EB0702012567EB0303FFF75E
:10026000B5FF86460E4617469C46AC4204D0002594
:10027000D0EB050E65EB010624B10020D2EB0007A0
:1002800060EB030C704631463A466346BDE8F081A8
:10029000D2B201E000F8012B491EFBD270470022C8
:1002A000F6E710B513460A4604461946FFF7F0FF75
:1002B000204610BD30B504460020034600E05B1C1C
:1002C000934203D2E05CCD5C401BF8D030BD2DE9F9
:1002D000FE4F804681EA0300C00F0C46009021F0DB
:1002E000004123F00045B8EB0200A94105D2404689
:1002F000214690461C460B46024623F00040104320
:1003000047D0270DC7F30A00C3F30A510290401AE1
:10031000019040286BDAC3F3130040F4801B00986F
:10032000924620B10023D2EB030A63EB0B0B01983A
:100330005946C0F14002504600F091F906460D467C
:1003400050465946019A00F0A9F910EB08006141A6
:10035000002487EA115284EAE7731A4340D0009AD6
:1003600062B3019A012A4FEA075215DC001B61EBC8
:1003700002014FF0004202EA0752CDE90042001CA0
:1003800041F5801132462B4600F0E0F903B0BDE89C
:10039000F08F40462146F9E7001B61EB0201001C8B
:1003A00041F5801300185B412018A2F5001747EBB8
:1003B000030140EAD570B6196D4111E06D084FEAAE
:1003C000360645EAC0754FEA0752001B61EB020191
:1003D000001C41F5801149084FEA300000195141D5
:1003E00032462B4603B0BDE8F04F00F0A0B90098AC
:1003F000012240000023D0EB020263EBE07300987F
:1004000021464FEAE074B8EB000061EB0401E9E734
:1004100083F000435BE781F0004158E72DE9FE4F90
:1004200081EA030404F0004421F0004100944FF0FD
:10043000000B23F0004350EA01045ED052EA0304AB
:100440005BD0C3F30A54C1F30A552C44A4F2F3342D
:100450000194A0FB0254C1F3130141F48011C3F3D2
:10046000130343F4801301FB024400FB034E840A90
:10047000970A44EA815447EA8357A4FB0768029528
:100480008D0A05FB07854FEA932C04FB0C542705C6
:10049000029D4FEA065847EA1637B5EB08056EEBA2
:1004A000070C870E920E47EA811742EA8312A7FBD8
:1004B0000201B6EB0B0164EB00042B0D43EA0C3395
:1004C0005E1844EB1C50DA465146E7FB0201C5F3C7
:1004D00013044FEA0B3343EA14534FEA0432019CEE
:1004E00043EA0603A4F10C040294009CCDE900B495
:1004F00000F02CF903B0BDE8F08F00200146F9E7C9
:100500002DE9F04D81EA030404F0004B21F0004591
:1005100014464FF0000A23F0004150EA050220D0B3
:1005200054EA01021DD0C5F30A570246C5F313036E
:10053000C1F31300C1F30A5640F4801543F480134D
:10054000A7EB0608101BD64608F2FD3873EB050032
:1005500002D308F1010801E092185B41B8F1000FE5
:1005600003DA00200146BDE8F08D00204FF4801131
:10057000064684460EE0171B73EB050705D3121BD6
:1005800063EB050306434CEA010C49084FEA3000CF
:1005900092185B4150EA0107EDD152EA030012D0F4
:1005A00082EA040083EA0501084305D0101BAB4131
:1005B00006D20122002306E000224FF0004302E0B1
:1005C0006FF0010253101AEB06004CEB085110EBD0
:1005D0000A0041EB0B01BDE8F04D00F0A8B80EB5E4
:1005E000C10F80EAE0700844CA07002140F233439B
:1005F0008DE80E000A460B4600F0A8F803B000BDD7
:1006000000F0004230F000400AD0C10D01F56071E9
:10061000C0F3160042EA0151C20840071143704777
:1006200000200146704701F0004330B421F0004142
:1006300050EA010206D00A0DA2F56072C1F313015F
:10064000002A02DC30BC00207047440F44EAC10499
:10065000C100E01830BC00EBC25000F031B8202AD5
:1006600004DB203A00FA02F1002070479140C2F109
:10067000200320FA03F3194390407047202A04DB3B
:10068000203A21FA02F00021704721FA02F3D0400B
:10069000C2F120029140084319467047202A06DB28
:1006A000CB17203A41FA02F043EAE07306E041FA40
:1006B00002F3D040C2F1200291400843194670472E
:1006C0000029A8BF7047401C490008BF20F0010066
:1006D000704710B4B0FA80FC00FA0CF050EA010444
:1006E00004BF10BC704749B1CCF1200421FA04F4D6
:1006F00011FA0CF118BF012121430843A3EB0C01AF
:10070000CB1D4FEA00614FEA102042BF002010BC11
:10071000704700EBC35010440029A4BF10BC7047C1
:10072000401C490008BF20F0010010BC704710B504
:10073000141E73F1000408DA401C41F10001921804
:100740005B411A4301D120F0010010BD2DE9F04DAD
:1007500092469B4611B1B1FA81F202E0B0FA80F202
:1007600020329046FFF77BFF04460F4640EA0A001E
:1007700041EA0B0153465A46084313D0114653EA47
:10078000010019D0C8F140025046FFF777FF054637
:100790000E46504659464246FFF761FF084305D0D2
:1007A000012004E020463946BDE8F08D00200543D5
:1007B00046EAE0762C4337430A986305E40AA0EB47
:1007C00008000022FD0A44EA47540A3002D50020FE
:1007D0000146E9E7010510196941DDE908450019FD
:1007E0006941BDE8F04DA2E7064C074D06E0E06820
:1007F00040F0010394E8070098471034AC42F6D368
:10080000FFF7CCFC00880008208800082DE9F04D97
:1008100000231A461B1A8A4103DB00200146BDE86B
:10082000F08DC1F30A52C1F3130141F480154FF06A
:10083000000BD10702D100186D41521E002704465B
:1008400040F2FF11384601EB620A3E4680460246FE
:1008500000204FF48011FFF711FFC2197141BB183E
:1008600046EB0100B4EB030C75EB000C04D3E41A67
:1008700065EB000517460E46241908F101006D418D
:1008800080463428E3DDF91946EB0600091BA84130
:1008900003D24FF0FF32134601E0002213461BEB58
:1008A000070046EB0A51BDE8F04DFFF740BFFEE7F9
:1008B0007047704790F83510022903D080214165B8
:1008C00001207047052180F835100068016821F08B
:1008D000010101600020704790F83500704700006A
:1008E00070B5044600F0DCF80546601C02D00448F0
:1008F0000078044400F0D4F8401BA042FAD370BD45
:100900006C0000202DE9F84FDFF860B100224FF0B5
:1009100001084FF0030A4FF00F090BF1040E00BF5E
:100920000B6808FA02F42340A3426ED14D68022DF1
:1009300001D0122D0ED1D50800EB850CDCF820502B
:100940005607F70E09FA07F6B5430E69BE402E4367
:10095000CCF82060066855000F790AFA05FC07F00C
:10096000030726EA0C06AF40374307604E68012EA6
:1009700005D0022E03D0112E01D0122E0ED1866882
:10098000CF6826EA0C06AF40374387604668A64327
:100990000C79C4F30014944034434460C6688C68F6
:1009A00026EA0C06AC403443C4604C68E40056D5DB
:1009B0002F4C256845F480452560246822F0030506
:1009C00004F4804400942B4C2E19D6F8084895075F
:1009D0002F0F09FA07F5AC43274DA84201D1002596
:1009E00015E0264DA84201D1012510E0244DA84272
:1009F00001D102250BE0234DA84201D1032506E0D9
:100A0000214DA84202D1042501E028E00725BD4080
:100A10002543C6F80858DBF800405D464E689C4305
:100A2000F60300D51C432C60DEF8004075464E6886
:100A30009C43B60300D51C432C600C4D08352C6834
:100A40004E689C43F60200D51C432C60074D0C35C4
:100A50002C684E689C43B60200D51C432C60521C87
:100A6000102AFFF45DAFBDE8F88F0000003C0140A4
:100A700044380240003001400000024000040240BF
:100A800000080240000C02400010024000690840CB
:100A900000D0012070470AB1816170470904FBE76B
:100AA00001488068704700006C0000207047704764
:100AB0002DE9F04104460068416946680025CF43AE
:100AC000F90506D4F143C90503D46FF480710125FB
:100AD0004161B80508D4F043C00505D421686FF41E
:100AE000007045F002054861780527D4F043C00541
:100AF00024D494F83E30628D94F83D00216B202B75
:100B000008D13AB9212810D029280ED0282801D19F
:100B100021290AD021686FF48060486194F83E0072
:100B200045F00405102804D008E0204602F0A6F89D
:100B300004E02068016841F400710160380508D4C0
:100B4000F043C00505D421686FF4006045F0080546
:100B50004861002D07D0206C284320642046BDE862
:100B6000F04101F0CDBCBDE8F0812DE9F041026813
:100B700000245168C56A90F83E3090F83D60102B13
:100B80001CD0402B1AD0036C002B7ED053694FF041
:100B90002805DB439F0779D4CF43BF0576D4016C8A
:100BA00001B1946990F83D3000219D430B467FD000
:100BB000C91E516180F83C30BDE8F08194695369E9
:100BC0004FF42A07DB435FEAC37C4FF02A4604D088
:100BD000BD42F1D0B542EFD010E0CD43AD050DD40C
:100BE000C16AB94201D1012103E0C16AB14201D118
:100BF0000821C162BDE8F04101F03CBF1D0716D4D9
:100C0000CD43AD0513D4416CC9B21161416B11B92B
:100C1000826B002AD0D0C96B19B9816BC96B0029CE
:100C2000CAD00068416841F400614160C4E79D0793
:100C300006D4CD43AD0503D4BDE8F04101F08EBE2E
:100C4000E443526864074FEA025215D4002AB3DB2A
:100C50001A0608D4CA43520505D45A0705D5BDE87B
:100C6000F04101F0F9BD5A07A6D4C9438905A3D4C0
:100C7000BDE8F04101F0AEBD002A9DDB5A060CD460
:100C8000CA43520509D45A0702E00FE023E00FE0FF
:100C900005D5BDE8F04101F053BD5A078CD4C943D6
:100CA000890589D4BDE8F04101F0E1BC94696DE7A4
:100CB000556825F480655560E243540700D501214D
:100CC000120601D5828900E0028B80F83C3092B296
:100CD000FFF7EDFE70E7DC0606D4CC43A40503D491
:100CE000BDE8F04102F00CB8212E27D0292E25D0E6
:100CF0005C0655D4CC43640552D45B0752D590F8BA
:100D00003D10438D002B91D01269436A1A70426ADC
:100D1000521C4262428D521E4285428D002A85D16C
:100D20002A29D7D101684A6822F480624A602221C8
:100D3000016380F83D5000F0E1FA3DE71C0623D442
:100D4000CC43640520D45B0720D590F83D10438D3B
:100D5000002BBFD0436A1B781361426A521C426267
:100D6000428D521E4285428D002AB3D12929B1D12C
:100D700001684A6822F480624A602121016380F898
:100D80003D5000F0BCFA17E75B07A3D4C9438905BF
:100D9000A0D4418D00299DD0416A097811610AE0F3
:100DA0005B0797D4C943890594D4418D002991D01C
:100DB0001169426A1170416A491C4162418D491EA4
:100DC0004185F9E67047000070B504001BD094F827
:100DD0003D00002520B984F83C50204600F048FA38
:100DE000242084F83D002068016821F001010160A1
:100DF00000F0B8FB4D4A6168914201D84C4900E0CF
:100E00004C49884201D2012070BD4B492368B0FB98
:100E1000F1F15E6826F03F060E435E606368934220
:100E200006D94FF4967359434FF47A73B1FBF3F13B
:100E30002368491C1E6A26F03F0631431962616827
:100E4000914210D84900401EB0FBF1F2521CC2F38F
:100E50000B02042A01D2042022E0B0FBF1F0401C76
:100E6000C0F30B001CE0A368F3B301EBC10202EB7B
:100E70000116421EB2FBF6F2521C42F480421205E9
:100E800049D093B301EBC10202EB0111401EB0FB4C
:100E9000F1F0401CC0F30B0040F4804040F40040EF
:100EA0002168CA694CF6FF739A431043C861D4E9BC
:100EB0000701084321680A6822F0C0021043086055
:100EC000D4E9030101432068826848F2FF339A4362
:100ED00011438160D4E9050108432168CA6822F002
:100EE000FF021043C86001E00EE016E020680168D0
:100EF00041F0010101602564202084F83D00256354
:100F000084F83E50002070BD01EB4106421EB2FB4A
:100F1000F6F2521CB3E70120C2E701EB4101401E8B
:100F2000B0FBF1F0401CC0F30B00B7E7A086010056
:100F300080841E0000093D0040420F00704770474A
:100F400070477047704700002DE9FF4F83B09A4605
:100F5000DDE9119793460446DDF84080FFF7A0FDD8
:100F6000054694F83D00202870D1192301227149CB
:100F70002046009501F098FF0028F5D194F83C0038
:100F8000012863D0012084F83C0020680168C9076B
:100F900003D1016841F0010101602068016821F47A
:100FA00000610160222084F83D00402084F83E006A
:100FB00000262664C4F82480A4F82A90608D208539
:100FC0005D48E062CDE9007553465A4620460499D3
:100FD00001F097FD00287CD1208DD0B1012821D0CF
:100FE0000228206824D0416980690090208D032860
:100FF00069D801282BD0514902283B464FF0000206
:10100000009559D08846204601F04EFF002860D157
:101010003CE02068416981690091016841F40071F8
:10102000016077E02068016821F480610160F0E7E9
:10103000016821F4806101602068016841F4006169
:101040000160206841698069009063E06FE02A4692
:101050003946204601F0A7FF98BB20680069616A05
:1010600008704EE02068016841F40071016020685A
:101070000069616A0870606A401C6062218D491EC7
:101080002185618D491E6185216838E020680168ED
:1010900021F48061016020680069616A0870606AFB
:1010A000401C6062208D401E2085608D401E608542
:1010B0003B46002241460095204601F0F5FE00B96E
:1010C000D0E706E0FFE72A463946204601F06BFFED
:1010D00018B1012007B0BDE8F08F20680069616A8F
:1010E0000870606A401C6062218D491E2185618DF7
:1010F000491E618521684A69D24352070AD40969A9
:101100000170606A401C6062208D401E2085608DE9
:10111000401E6085208D00287FF468AF202084F871
:101120003D0084F83E6084F83C600020D2E7022055
:10113000D0E70000020010000000FFFF04000100E3
:101140002DE9FF4F83B09A46DDE911979346044697
:10115000DDF84080FFF7A4FC054694F83D00202808
:101160007FD11923012240492046009501F09CFEC1
:10117000002876D194F83C00012872D0012084F830
:101180003C0020680168C90703D1016841F00101F2
:1011900001602068016821F400610160212084F869
:1011A0003D00402084F83E0000262664C4F82480D8
:1011B000A4F82A90608D20852C48E062CDE9007566
:1011C00053465A462046049901F00EFD70B930E0AE
:1011D0002A463946204601F019FF58B1206C0428F0
:1011E00004D12068016841F400710160012007B05A
:1011F000BDE8F08F606A216800780861606A401C71
:101200006062218D491E89B22185628D521E6285E0
:1012100022685369DB435B070BD469B10078106126
:10122000606A401C6062208D401E2085608D401EDB
:101230006085208D0028CBD12A463946204601F012
:101240000DFE0028CAD154F83D0B016841F400712D
:101250000160202004F81E09E67766770020C6E7C3
:10126000FFE70220C3E70000020010000000FFFFBC
:1012700010B586B0044614216846FFF710F81C49E3
:101280002068884231D11B48016841F002010160A9
:101290000068694600F0020005904FF4407000902D
:1012A000122001900120029003200390042004905A
:1012B0001148FFF727FB0F481030016841F4001177
:1012C00001600068002200F40010059011461F2004
:1012D00000F07EF81F2000F06DF80022114620205B
:1012E00000F076F8202000F065F806B010BD000090
:1012F00000540040303802400004024070477047FC
:101300000248816802781144816070476C000020B7
:101310000B4810B5016841F400710160016841F4A7
:1013200080610160016841F480710160032000F078
:101330006FF8002000F006F800F024F8002010BD3F
:10134000003C024070B50D4D04464FF47A71287888
:10135000B1FBF0F00A490968B1FBF0F000F0CFFCF6
:1013600048B9102C07D200222146501E00F030F858
:1013700000206C6070BD012070BD00006C0000207A
:10138000780000200A4808B5016841F480410160F6
:10139000006800F4804000900548001F016841F09B
:1013A00080510160006800F08050009008BD00008E
:1013B00044380240002809DB00F01F02012191405F
:1013C0004009800000F1E020C0F8001170470000E3
:1013D000F0B40E4B1B680C46C3F30223C3F10705A0
:1013E000042D00D90425191D072901D2002300E08E
:1013F000DB1E012606FA05F1491E214099409E4058
:10140000761E16403143F0BC02F0B6BF0CED00E092
:10141000064900F0070208684FF6FF03184040EA4B
:101420000220034A10430860704700000CED00E002
:101430000000FA052DE9F0470E46050065D0DFF8FB
:101440001481D8F80000F7B200F00F00B04207D2C4
:1014500088F80070D8F8000000F00F00B04254D1B6
:1014600028683D4C810712D5400703D5206840F419
:10147000E05020602878000703D5206840F46040E1
:1014800020602068A96820F0F000084320602878D8
:10149000C0072DD0304968680839012812D00228C9
:1014A00013D0032811D00968890700292DDA216893
:1014B00021F0030101432160FFF7F2FA814641F276
:1014C000883A0EE009688903EFE709688901ECE7CB
:1014D000FFF7E6FAA0EB0901514502D90320BDE868
:1014E000F0872068696800F00C00B0EB810FEFD145
:1014F000D8F80010404601F00F01B14207D907703B
:10150000006800F00F00B04201D00120E7E7287822
:10151000400705D52068E96820F4E05008432060C2
:101520002878000706D52068296920F4604040EA41
:10153000C100206000F036F82168084AC1F30311A9
:10154000515CC840064908600020FFF7FBFE002000
:10155000C5E70000003C024008380240A8860008A9
:10156000780000200448054900680968044AC1F36E
:101570008221515CC8407047780000200838024042
:10158000B88600080448054900680968044AC1F3A0
:101590004231515CC8407047780000200838024052
:1015A000B8860008154810B5006810F00C02144801
:1015B00013D01449042A0FD0082A0ED10F4C241F2F
:1015C0002268236802F03F025B0207D52068C0F35F
:1015D0008810A0FB010106E0084610BD2168C1F398
:1015E0008811A1FB00010023FEF7F0FD2168C1F383
:1015F0000141491C4900B0FBF1F010BD0838024020
:101600000024F400001BB7002DE9F84F050076D048
:101610002878DFF8F8B2BE4CC00749D0DBF80010DC
:101620005846C1F38101012908D00068C0F3810048
:1016300002280AD1201D0068400206D520688003D8
:1016400036D568680028E2D032E06868B0F5803F9F
:1016500010D0B0F5A02F206810D020F4803020608A
:10166000206820F4802020606868A0B1FFF718FA95
:1016700006460CE0206840F48030F4E740F4802017
:101680002060F7E7FFF70CFA801B642873D8206806
:101690008003F7D50CE0FFF703FA064605E000BF2C
:1016A000FFF7FEF9801B6428F0D820688003F7D488
:1016B0002878DFF8608280074FF000093ED5DBF81C
:1016C0000010584611F00C0F09D00068C0F38100DB
:1016D00002280BD18D48001F0068400206D4206804
:1016E000800715D5E868012809D111E0E868B8B18C
:1016F0000120C8F80000FFF7D3F9064605E002E133
:10170000FFF7CEF9801B0228C0D820688007F7D5E4
:101710002068296920F0F80040EAC10020600DE04F
:10172000C8F80090FFF7BCF9064604E0FFF7B8F9E7
:10173000801B02281FD820688007F7D4287800076C
:1017400022D5724E744869696C3671B1012101600D
:10175000FFF7A6F9074604E0FFF7A2F9C01B02282D
:1017600009D830688007F7D50EE0C0F80090FFF781
:1017700097F9074605E083E0FFF792F9C01B0228BE
:101780007ED830688007F7D42878400768D5DFF81E
:101790007CA100270AF1380ADAF80000C0000BD457
:1017A000DAF8001041F08051CAF80010DAF80000B1
:1017B000012700F080500090584E3068C00510D4CA
:1017C000306840F480703060FFF76AF9009005E0FF
:1017D000FFF766F90099401A022851D83068C00511
:1017E000F6D54A4EA868683601280FD0052830681B
:1017F00010D020F001003060306820F0040030602C
:10180000A868B8B1FFF74CF900900FE0306840F0DD
:101810000100F4E740F004003060F7E7FFF740F91B
:101820000099411A41F28830814264D830688007BB
:10183000F4D50EE0FFF734F9009007E0FFF730F938
:101840000099411A41F28830814254D830688007AB
:10185000F4D42FB1DAF8001021F08051CAF800104A
:10186000A869C0B3DBF80010C1F3810102294AD096
:101870000228484607D0C8F86000FFF711F900E0D9
:1018800039E005463AE04746C8F86000FFF708F936
:10189000064604E0FFF704F9801B02282BD82068D5
:1018A0008001F7D4D5E907010843A96A1C4A490811
:1018B00002EB01416A6A41EA8211084395F82C1053
:1018C00040EA01611148001F016001203866FFF7FE
:1018D000E7F8054605E014E0FFF7E2F8401B0228B0
:1018E00009D820688001F7D50BE000BFFFF7D8F8D2
:1018F000401B022802D90320BDE8F88F2068800130
:10190000F4D40020F8E70120F6E700000838024090
:101910000038024000004742800E474200700040FD
:101920000000FFFF7047000038B5016804464A68B0
:101930008868C043430606D5C30704D1D3435B067A
:1019400001D4216C05E0830708D4D3431B0605D4DA
:10195000616C01B02046BDE830400847830603D5DE
:10196000430601D5C30551D4D3439B064ED4430649
:101970000AD494F85130032B49D0636D43F004032B
:101980006365CB688B680093830609D4636D43F06D
:10199000010363658B6800930B6823F040030B60C1
:1019A000C00506D4606D40F008006065206880685E
:1019B0000090606D002829D02068416821F0E00186
:1019C0004160012084F85100900701D4D00722D053
:1019D0002068416821F003014160114DE06C40B185
:1019E0000565E06CFEF766FF18B1606D40F04000E1
:1019F0006065A06C002809D00565A06CFEF75AFF51
:101A0000002803D0606D40F04000606538BDC868B4
:101A10008868009038BD2046FFF784FF38BD00007D
:101A2000993A000870B5040005D00025A56294F825
:101A3000510010B106E0012070BD84F850502046DE
:101A400000F030F8022084F851002068016821F08D
:101A500040010160D4E901010843D4E903121143B4
:101A6000084361690843218B01F400710843E1696F
:101A70000843216A0843A16A084321680860A069F5
:101A8000042101EA1040616A084321684860206827
:101A9000C16921F40061C1616565012084F85100CC
:101AA000002070BD10B586B0044614216846FEF7CC
:101AB000F6FB17492068884228D1164800210268A1
:101AC00042F480520260006800F480500590114892
:101AD0001438026842F001020260006800F0010060
:101AE0000590E02000900220CDE901010320039041
:101AF0000520049069460848FEF704FF00221146BD
:101B00002320FFF765FC2320FFF754FC06B010BD2F
:101B10000030014044380240000002402DE9F84FF7
:101B2000044690F8500000270A9E1D4692468B46B8
:101B30004FF0010901280ED0012084F85000FEF773
:101B4000AFFF804694F85100616801280CD0B1F5D0
:101B5000827F07D102E00220BDE8F88FA16809B9B1
:101B6000042801D00227C2E0BBF1000F27D0BAF150
:101B7000000F24D01DB394F85100042802D0052092
:101B800084F8510000206065C4F838A0E587A58777
:101B9000C4F830B0E586A5862064606420680168DA
:101BA000490603D4016841F040010160E068B0F5E6
:101BB000006F606805D0E8B3012D46D07FE00127B3
:101BC00095E008B1012D39D1206B21680088C860EB
:101BD000206B801C2063E08E401EE0862EE0206893
:101BE000816889070FD5E18E69B1B9F1010F0AD17A
:101BF000216B0988C160206B801C2063E08E401E31
:101C0000E0864FF0000920688168C9070CD0E18F99
:101C100051B1C068A16B0880A06B801CA063E08FED
:101C2000401EE0874FF00109FEF73AFFA0EB0800E5
:101C3000B04200E009E001D3701C50D1E08E0028D2
:101C4000CDD1E08F0028CAD13FE0206B2168007819
:101C50000873206B401C2063E08E401EE0862EE05F
:101C60002068816889070FD5E18E69B1B9F1010F4C
:101C70000AD1216B09780173206B401C2063E08E30
:101C8000401EE0864FF0000920688168C9070CD02B
:101C9000E18F51B1C068A16B0870A06B401CA063BC
:101CA000E08F401EE0874FF00109FEF7F9FEA0EB40
:101CB0000800B04202D3701C01D010E07EB1E08E6B
:101CC0000028CDD1E08F0028CAD1424631462046B7
:101CD00001F0EAFE28B101272020606507E0032714
:101CE00005E0A06818B92068C168806800900120EC
:101CF00084F85100002084F8500038462CE710B5D5
:101D0000401EB0F1807F01D3012010BD4FF0E024D0
:101D100060610F21601702F02FFB0020A0610720F7
:101D20002061002010BD7047704770B590F83C20CE
:101D3000012A19D0012400F83C4F0222427050F8C9
:101D40003C3C5A689D6822F070060A684968324334
:101D500025F0800529435A6050F83C2C916044706E
:101D600000210170084670BD022070BD10B504004E
:101D700003D094F83D0010B107E0012010BD002011
:101D800084F83C00204600F00DF8022084F83D0065
:101D9000211D206801F074FF012084F83D0000201F
:101DA00010BD000008B50068B0F1804F12D10A489C
:101DB000016841F0010101600068002200F00100AB
:101DC000009011461C20FFF703FBBDE808401C20D3
:101DD000FFF7F0BA08BD00004038024070B5044675
:101DE00090F83C00012817D0012584F83C500220CF
:101DF00084F83D002068826822F0770222F47F4256
:101E000082600868502830D00DDC20284DD005DCD9
:101E100098B310283BD148E0022070BD302844D050
:101E2000402834D139E0602828D0702806D0B0F599
:101E3000805F2CD0B0F5005F29D10AE0CB68D1E9F2
:101E40000121206801F075FF2068816841F0770169
:101E500009E0CB68D1E90121206801F06AFF206820
:101E6000816841F48041816011E0CA684968206856
:101E700002F014F85021206807E016E0CA684968AB
:101E8000206802F01CF86021206801F05CFF84F8F3
:101E90003D50002084F83C0070BDCA684968206845
:101EA00001F0FCFF40212068EFE722680146104660
:101EB000EBE7704770B50446006801694FF0000514
:101EC000C943890715D4C168C943890711D4E91EDC
:101ED000016101202077206880698007204602D0B8
:101EE000FFF7E7FF04E000F0C1F8204600F043F9F7
:101EF000257720680169C943490717D4C168C943D8
:101F0000490713D46FF00401016102202077206893
:101F1000806910F4407F204602D0FFF7CAFF04E03A
:101F200000F0A4F8204600F026F925772068016922
:101F3000C943090716D4C168C943090712D46FF011
:101F400008010161042020772068C06980072046CD
:101F500002D0FFF7AEFF04E000F088F8204600F062
:101F60000AF9257720680169C943C90617D4C168F1
:101F7000C943C90613D46FF010010161082020770E
:101F80002068C06910F4407F204602D0FFF791FF1F
:101F900004E000F06BF8204600F0EDF825772068AB
:101FA0000169C943C90708D1C168C943C90704D138
:101FB000891E0161204600F0FBF820680169C943D1
:101FC000090609D4C168C943090605D46FF0800128
:101FD00001612046FFF7A7FE20680169C943490651
:101FE00009D4C168C943490605D46FF040010161B5
:101FF000204600F0DEF820680169C94389060BD449
:10200000C168C943890607D46FF0200101612046E9
:10201000BDE87040FFF788BE70BD000010B586B007
:10202000044614216846FEF73AF92068B0F1804F63
:1020300015D10C480021026842F0010202600068DC
:1020400000F0010005900F20009002200190012077
:10205000CDE90201049069460348FEF753FC06B03F
:1020600010BD00003038024000000240704770B5DB
:10207000044690F83C000D4601280DD0012684F856
:102080003C60022084F83D0042B1042A18D0082A9E
:102090002AD00C2A4DD139E0022070BD206801F011
:1020A0005BFE2068816941F00801816120688169D7
:1020B00021F004018161206881692A69114311E0DE
:1020C000206801F071FE2068816941F4006181613E
:1020D0002068816921F480618161206881692A69B1
:1020E00041EA0221816124E0206801F089FE206834
:1020F000C16941F00801C1612068C16921F0040192
:10210000C1612068C1692A69114311E0206801F0AA
:10211000A3FE2068C16941F40061C1612068C16902
:1021200021F48061C1612068C1692A6941EA022104
:10213000C16184F83D60002084F83C0070BD10B59A
:10214000040003D094F83D0010B107E0012010BD59
:10215000002084F83C00204600F00CF8022084F8AF
:102160003D00211D206801F08BFD012084F83D0019
:10217000002010BD7047704710B50446006801226A
:1021800001F0CAFD09492068884203D1416C41F43D
:10219000004141642068816801F00701062903D0ED
:1021A000016841F001010160002010BD0000014004
:1021B000704770477047000070B5026804461068A9
:1021C000D168536910F00F0F51D003F0010501F4ED
:1021D000907635435DD0C20705D0CA0503D5E26BC2
:1021E00042F00102E263420705D5DA0703D0E26B51
:1021F00042F00202E263820705D5DA0703D0E26B00
:1022000042F00402E263020705D5DA0703D0E26B6D
:1022100042F00802E263E26B002A34D0800604D563
:10222000880602D5204601F072FE20684069E16B05
:10223000C0F3801001F008010143204624D001F0D2
:1022400058FE2068416949061AD5416921F04001CC
:102250004161606BA0B11B490165606BFEF72AFB11
:10226000002810D0606B016DBDE870400847830600
:102270000FD58B060DD52046BDE8704001F047BE56
:102280002046FFF797FF70BDFFF794FF0020E06343
:1022900070BD030606D50B0604D52046BDE8704088
:1022A00001F0D6BF4006F3D54806F1D5D1682046E7
:1022B00021F04001D160202184F8391000F0D2F8DB
:1022C00070BD0000E33E000870B5040004D094F82F
:1022D0003900002510B106E0012070BD84F83850A7
:1022E000204600F023F8242084F839002068C168D3
:1022F00021F40051C160204601F054FE20680169BC
:1023000021F4904101612068416921F02A01416175
:102310002068C16841F40051C160E563202084F861
:10232000390084F83A00002070BD000010B586B076
:10233000044614216846FDF7B2FF18492068884218
:1023400029D11748016841F010010160006800F0D0
:102350001000059012481438016841F00101016035
:102360000068694600F0010005904FF4C0600090DD
:102370000220019001200290032003900720049086
:102380000848FEF7BFFA002211462520FFF720F883
:102390002520FFF70FF806B010BD00000010014027
:1023A000443802400000024070472DE9F8430446DB
:1023B00090F839001F4616460D46202850D1A5B189
:1023C0009EB194F8380001284AD0012084F83800E2
:1023D0004FF00008C4F83C80212084F83900FEF753
:1023E0005FFBA6848146E68426E00120BDE8F883F1
:1023F000E08C401EE084A0684B46B0F5805F4FF053
:1024000000024FF080012046009703D001F051FFF9
:10241000E8B90DE001F04DFFC8B928882168C0F384
:1024200008004860206908B16D1C05E0AD1C03E0A0
:10243000216815F8010B4860E08C0028D8D14B4684
:10244000002240212046009701F033FF08B103200D
:10245000CCE7202084F8390084F838800020C5E7D4
:102460000220C3E77047FEE70148FEF721BB0000EA
:10247000900100200148FEF778BB00009001002089
:1024800010B5806B90F83D30426B0021D163826BB8
:10249000D1630268146824F4806414604185426B3F
:1024A0001165826B11650268146824F001041460E0
:1024B00090F83D202024602A0BD0282232EA030322
:1024C0000FD080F83D4080F83E1000BFFEF77AFC48
:1024D00010BD80F83D4080F83E100164FEF7E6FA3A
:1024E00010BD03681C6844F001041C6003681C688C
:1024F00044F480641C60016380F83D20E6E700003E
:1025000070B5044690F83D0094F83E10102906D1AD
:10251000222804D121680A6822F400620A60282176
:1025200031EA00024FF000054FF0200626D0216866
:102530004968090503D4602801D084F83D6025630B
:1025400084F83E5020684168090537D5416821F478
:1025500000614160606B90F835203749012A11D045
:102560000165606BFEF7A6F938B32068016821F0B9
:102570000101016084F83D60606B1CE0256384F814
:102580003D10DFE7A06B0165A06BFEF793F9A0B1EA
:1025900020684169C943490605D40069616A087029
:1025A000606A401C60622068016821F001010160DE
:1025B00084F83D60A06B016D884710E094F83D10F1
:1025C000602923D04169C943490605D40069616A7D
:1025D0000870606A401C60622046FEF7F3FB94F8C6
:1025E0003D00216C490710D528280ED1206841688C
:1025F00021F4E06141601148E062256384F83D60A8
:1026000084F83E502046FEF799FC70BD84F83D608A
:1026100025644169C943490605D40069616A0870A7
:10262000606A401C60622068016821F0010101605D
:102630002046FEF73BFAD2E7812400080000FFFFA6
:1026400001684A69D24352050FD46FF480624A612F
:10265000002140F8301F202242738173026942F04A
:10266000040202610173012070470020704710B519
:10267000C26A438D0168042B06D0438D032B08D01A
:10268000438D022B1DD012E04A6822F480624A601A
:102690000CE04B6823F480634B60042A06D0022AC6
:1026A00004D001680A6822F480620A60016809693E
:1026B000426A1170416A491C4162418D491E41853F
:1026C00010BD012A30D0102A2ED0042A30D0022A80
:1026D0002ED00A6842F400720A6001680969426AF1
:1026E0001170416A491C4162428D521E4285026846
:1026F00012690A70416A491C4162418D491E418537
:1027000001684A6822F440724A60202180F83D1036
:1027100090F83E200021402A80F83E100CD0122173
:102720000163FEF70CFC10BD0A6822F48062D3E757
:102730000A6842F48062CFE70163FEF702FC10BD35
:1027400010B590F83D10222914D1418D032912D9DA
:1027500001680969426A1170416A491C4162418DF0
:10276000491E4185418D032904D10068416821F447
:102770008061416010BDC26A022AFBD0012901D0EC
:102780000029F7D101680A6822F480620A600168B2
:102790004A6822F4E0624A6001680969426A11707D
:1027A000416A491C4162418D491E4185202180F8C2
:1027B0003D1090F83E200021402A80F83E1004D0C1
:1027C00012210163FEF7BBFB10BD0163FEF7B9FBED
:1027D00010BD000010B5C26A90F83D1021290BD140
:1027E000418D51B1416A026809781161416A491C01
:1027F0004162418D491E418510BD20230021082AD8
:1028000013D0202A11D012F5803F0ED002685468F0
:1028100024F4E06454601122026380F83E1080F8D2
:102820003D3000BFFEF78CFB10BD0268546824F4F5
:10283000E06454600268146844F400741460016336
:1028400080F83D3090F83E2080F83E10402AE9D1D3
:10285000FEF778FB10BD000010B590F83D1090F821
:102860003E30C26A048D64B1212903D0402B21D1AE
:1028700022291FD1418DA1B390F83E10402937D0B5
:1028800046E02129F2D120230021082A13D0202A52
:1028900011D012F5803F0ED00268546824F4E06431
:1028A00054601122026380F83E1080F83D3000BF72
:1028B000FEF746FB10BD0268546824F4E0645460DF
:1028C0000268146844F400741460016380F83D30B9
:1028D00090F83E2080F83E10402AE9D1FEF732FB06
:1028E00010BDFFE70068416821F480614160F7E7AF
:1028F000016DC1B1016D012922D0016D0229EFD115
:1029000090F83D10222923D090F83D102129E7D1DD
:10291000416A026809781161416A491C4162418D2E
:10292000491E4185DCE7C16C0129816C02D0C1F3ED
:10293000072107E00268C9B21161016D891C05E039
:10294000816CC9B202681161016D491C0165C7E75C
:102950000068016841F480710160C1E778B590F8C2
:102960003E50C26A036B90F83D6000240168222E3D
:102970007AD1066D0EB9402D76D0056D1DB9056969
:10298000B5F5404F09D0458D05B3468D384D012E24
:102990000ED0438D022B3AD05DE04A698A690092DD
:1029A0000A6842F480720A60016D491C016578BDB5
:1029B000AA4213D10A6822F480620A6001684A6858
:1029C000120503D50A6822F4806216E04A698A6912
:1029D00000920A6842F400720A6039E0082A10D0B6
:1029E000202A0ED0122B0AD0042A03D0022A01D0AA
:1029F000102AE7D10A6842F480620A6024E0012AC2
:102A0000E0D00A6822F480620A600168DEE7042AE6
:102A100021D0022A1FD0102A1DD00B6823F4806316
:102A20000B6001680B6843F400630B6001684B683E
:102A30001B0509D5AA4212D0012A10D0082A0ED0AF
:102A4000102A0CD0202A0AD001684A6989690091AD
:102A5000046578BD08E00B6843F48063E5E74A68E5
:102A600042F480524A60EFE7486988690090F0E7D5
:102A70000000FFFF90F83E10402910D00169B1F529
:102A8000804F19D0016DB1B3016D012910D1416C96
:102A90005FF0F10201F4407142EAD11106E0016DEC
:102AA0000029416C05D0C9B241F001010068016103
:102AB000704701F0FE01F9E790F83D102129416CC3
:102AC00007D0C9B241F0010102681161416B31B90F
:102AD00002E001F0FE01F7E7826B002AE8D0C96B43
:102AE00019B9816BC96B0029E2D00068416841F4D3
:102AF000006141607047FFE7416CF02201F44071D2
:102B0000CAE72DE9F84F0446006889460B9D016825
:102B10009846174641F4806101602068016841F4DD
:102B20008071016000954FF0011A00225146204645
:102B30000A9B00F0B9F9002853D1216809F0FE0082
:102B400008610AF1010B2B46594620460A9A00F00B
:102B5000DFF9F0BB20684169806900902A46204671
:102B60000A9900F053FA40B1206C042839D120684A
:102B7000016841F40071016033E0FEB2B8F1010F69
:102B800009D02168380A08612A4620460A9900F0CF
:102B90003DFA0028E8D1206806612A4620460A99B5
:102BA00000F034FA0028DFD12068016841F4807118
:102BB000016000950022514620460A9B00F074F9FE
:102BC00038B9216809F0FF0040F0010008612B4688
:102BD00000E006E0594620460A9A00F099F90028DC
:102BE00000D00120BDE8F88F2DE9F84304460068C5
:102BF0000D46DDE9089701689846164641F4807154
:102C000001604B4600224FF001112046009700F072
:102C10004BF9E0B9216805F0FE0008613B464A46E1
:102C20001549204600F074F988B920684169806927
:102C300000903A464946204600F0E8F950B1206C31
:102C4000042804D12068016841F40071016001206A
:102C5000BDE8F883F5B2B8F1010F09D02168300A58
:102C600008613A464946204600F0D0F90028E6D1EE
:102C7000206805610020EBE7020001002DE9F0412A
:102C800090F83D40C26A002320261C4F01686FF473
:102C90008065082A01D0202A01D1282C04D0212CBB
:102CA00016D04D61BDE8F081C7624A6822F4E06247
:102CB0004A6001684D6101680A6822F480620A6016
:102CC000036380F83D6080F83E30FEF737F9E9E7AE
:102CD000C7622122026380F83D6080F83E304A6876
:102CE00022F4E0624A6001684D6101680A6822F4DA
:102CF00080620A60FEF703FBD4E700000000FFFFDC
:102D0000F8B590F83D6004460068416821F4E06140
:102D100041602068002541690091016841F001018E
:102D200001602068016821F48061016020684168C9
:102D3000090520D5474F222E48D02A2E46D0616B58
:102D4000096849686185618D19B1216C41F0040100
:102D50002164416821F400614160606BFDF7BCFDB6
:102D6000012808D0606B0765606BFDF7A3FD10B10B
:102D7000606B016D8847608D08B320684169C94365
:102D8000490708D40069616A0870606A401C606283
:102D9000608D401E608520684169C943490608D49A
:102DA0000069616A0870606A401C6062608D401E44
:102DB0006085608D18B1206C40F004002064206CA8
:102DC00000B32046BDE8F840FFF79ABBA16B096845
:102DD00049686185618D19B1216C41F0040121645C
:102DE000416821F400614160A06BFDF775FD012889
:102DF000C1D0A06B0765A06BFDF75CFD0028BAD0C1
:102E0000A06BB6E72A2E06D12563282084F83D0062
:102E10002046FEF773FA94F83D10202028290DD0A3
:102E2000216B222901D0222E07D1256384F83D0091
:102E300084F83E502046FEF761FAF8BD0649E1628B
:102E4000256384F83D0084F83E502046FEF776F86E
:102E5000F8BD0000812400080000FFFF70B5164691
:102E60000D4604460DE02046FFF7EAFB08B10120BD
:102E700070BD681C05D0FDF713FE801BA84207D863
:102E800035B120684069C0434007ECD4002070BDD4
:102E9000002044F8300F20216173A073216941F0B4
:102EA000200121612073E2E72DE9F0471E4690469C
:102EB0000D460446C1F30747DDF8209008E0701C7A
:102EC00006D0FDF7EDFDA0EB0900B0420FD876B1BA
:102ED0002068012F18D0806925EA00000004000C4A
:102EE00014D000214145EAD00020BDE8F087002041
:102EF00044F8300F20216173A073216941F0200153
:102F0000216120730120F0E74069E5E70121E9E74D
:102F10002DE9F0479A4691460E46044600254FF0AB
:102F20002008C1F3074725E020684069C0434005F9
:102F300014D42068016841F40071016021686FF4C5
:102F400080604861256384F83D8084F83E50206CA1
:102F500040F00400206484F83C501FE0B9F1FF3FCA
:102F600008D0FDF79DFDA0EB0A0149450CD8B9F149
:102F7000000F09D02068012F13D0806926EA0000D5
:102F80000004000C0BD0CFE744F8305F84F80D80CC
:102F9000A573206940F02000206125730120BDE861
:102FA000F0874069EAE72DE9F041002590460E469A
:102FB0000446202717E04069C043C0060CD454F8EB
:102FC000301B6FF01000486144F810596777A577FF
:102FD000206A2062257717E0FDF762FDA0EB08006C
:102FE000B04208D83EB120684169C9434906E2D4DD
:102FF0000020BDE8F08144F8305F6773A573206955
:1030000040F02000206125730120F2E770B51646DC
:103010000D4604460DE02046FFF712FB08B10120E3
:1030200070BD681C05D0FDF73BFD801BA84207D88A
:1030300035B120684069C0430006ECD4002070BD63
:10304000002044F8300F20216173A073216941F002
:10305000200121612073E2E708B56B46022241217D
:10306000682000F0CDF9BDF8000040BA00B2FDF7CD
:10307000B6FA9FED0D1B53EC112BFDF741FA9FEDB6
:103080000C1B53EC112BFDF722F9FDF7CCFA00EEE7
:10309000100ADFED090A20EE200ABDEEC00A10EE8C
:1030A000100A00B208BD000000000000004075409A
:1030B000A4703D0AD74342400000C84270B5104D8D
:1030C0004FF48064002221462846FDF7E4FC00F01E
:1030D000E1F9002208212846FDF7DDFC022002F07C
:1030E0008FFA012221462846FDF7D5FC022002F086
:1030F00087FA21462846BDE870400022FDF7CBBC88
:103100000004024030B587B014216846FDF7C7F8C7
:103110000D48016841F00201016000684FF48164CC
:1031200000F0020005900120CDE900400220074D8B
:10313000039069462846FDF7E5FB01222146284613
:10314000FDF7A9FC07B030BD303802400004024052
:1031500070B5104D4FF48064002221462846FDF7DB
:103160009AFC00F097F9012208212846FDF793FC0C
:10317000022002F045FA012221462846FDF78BFC89
:10318000022002F03DFA21462846BDE870400022A8
:10319000FDF781BC000402402DE9F0418046002487
:1031A00000F064F9154F00254FF480660022314687
:1031B0003846FDF770FC022002F022FA0122314667
:1031C0003846FDF768FC6006040E08213846FDF716
:1031D0005DFC08B1641CE4B2022002F011FA6D1C1F
:1031E000EDB2082DE2D3B8F1000F04D0FFF766FF6F
:1031F0002046BDE8F081FFF7ABFFF9E7000402408D
:103200002DE9F041054600F045F9154F4FF4806671
:10321000002231463846FDF73EFC0024280601D541
:10322000012200E0002208213846FDF734FC680640
:10323000050E012231463846FDF72DFC022002F032
:10324000DFF9002231463846FDF725FC022002F066
:10325000D7F9641CE4B2082CE0D3BDE8F08100008B
:103260000004024070B500F015F90F4C012208214E
:103270002046FDF710FC0122950229462046FDF765
:103280000AFC022002F0BCF9002208212046FDF7CA
:1032900002FC022002F0B4F929462046BDE8704045
:1032A0000022FDF7F8BB00000004024070B500F0FA
:1032B000F1F80F4D4FF48064002221462846FDF7B7
:1032C000EAFB002208212846FDF7E5FB022002F078
:1032D00097F9012221462846FDF7DDFB012208214E
:1032E0002846FDF7D8FBBDE87040022002F088B9FF
:1032F0000004024070B5002400F0B8F8134D01221C
:1033000008212846FDF7C7FB022002F079F90122C7
:10331000960231462846FDF7BEFB022002F070F906
:1033200007E0641CE4B2FA2C03D9FFF7BFFF0120C9
:1033300070BD08212846FDF7A9FB0028F1D1002225
:1033400031462846FDF7A7FB002070BD000402406F
:1033500010B5FFF7D7FE80216B2000F0EAF864205B
:10336000FDF7BEFA00216B2000F0E3F8032000F027
:10337000ACF8002000F0A4F8322000F0C3F80021DF
:10338000382000F0D6F800216A2000F0D2F80021A1
:10339000232000F0CEF88021372000F0CAF87520F5
:1033A00000F011F8682801D0012010BD01216B2028
:1033B00000F0BFF800216C2000F0BBF8322000F0D4
:1033C000A1F8002010BD10B50446FFF74BFFD02038
:1033D000FFF716FFFFF78EFF2046FFF711FFFFF7FD
:1033E00089FFFFF73FFFD120FFF70AFFFFF782FFBA
:1033F0000020FFF7D1FE0446FFF758FF204610BD1E
:103400002DE9F0411D4614460F460646FFF72AFFF8
:103410007006000EFFF7F4FEFFF76CFF20B1FFF718
:1034200045FF0120BDE8F0813846FFF7E9FEFFF7D0
:1034300061FFFFF717FF012000EB4600C0B2FFF766
:10344000DFFEFFF757FF09E0012C0DD05FF0010010
:10345000FFF7A2FE641E05F8010BE4B2002CF3D1C5
:10346000FFF724FF0020DDE70020F1E700B585B07D
:1034700014216846FCF713FF0820009000200190FB
:103480000120029069460248FDF73CFA05B000BDF4
:103490000004024000B585B014216846FCF7FFFE29
:1034A00008200090012001900290002003906946BE
:1034B0000248FDF727FA05B000BD000000040240F5
:1034C000C006010E1C2000F034B8C006010E1B20FF
:1034D00000F02FB8BC2801D3012110E0622801D3ED
:1034E00002210CE02A2801D3032108E0142801D38B
:1034F000042104E00A2801D3052100E006211A2056
:1035000000F017B810B504464FF47A70844201D920
:10351000044602E0042C00D20424B0FBF4F0401E68
:10352000C1B2192000F005F86008BDE81040FFF7AF
:10353000D1BF70B50C460546FFF794FED020FFF7CB
:103540005FFEFFF7D7FE50B92846FFF759FEFFF799
:10355000D1FE2046FFF754FEFFF7CCFE18B1FFF76F
:10356000A5FE012070BDFFF7A1FE002070BD2DE972
:10357000F0411E4615460F460446FFF773FE6006EF
:10358000000EFFF73DFEFFF7B5FE60B93846FFF7C6
:1035900037FEFFF7AFFE00240CE0305DFFF730FE92
:1035A000FFF7A8FE20B1FFF781FE0120BDE8F08102
:1035B000641CE4B2AC42F0D3FFF778FE0020F5E7DC
:1035C000F0B587B014216846FCF769FE2C48002549
:1035D000016841F004010160016801F004010591F6
:1035E000016841F080010160016801F080010591EE
:1035F000016841F001010160016801F001010591DC
:10360000016841F0020101600068012200F002003F
:103610001C4E5403059021463046FDF73CFA1A4FE4
:10362000002203213846FDF736FA0122F021384600
:10363000FDF731FA00940124694630460194CDE942
:103640000245FDF75FF90320CDE900040220CDE932
:10365000024069463846FDF755F90420CDE90005DA
:10366000694638460295FDF74DF9F020CDE9000492
:1036700069463846CDE90245FDF744F907B0F0BD8B
:103680003038024000080240000402400D4810B5E6
:103690000B4901600C49416000214FF48042816078
:1036A000C0E9031241618161C1610162FDF78CFBD8
:1036B000002803D0BDE81040FDF7FBB810BD0000A6
:1036C0000054004090010020A0860100104810B571
:1036D0000E4901604FF48271416000218160C16038
:1036E0004FF400720161C0E905121822C0E90721F8
:1036F000416281620A21C162FEF794F9002803D079
:10370000BDE81040FDF7D5B810BD00000030014005
:10371000E401002010B58EB00024079408940994A9
:103720000A940B941C2168460C94FCF7B8FD2A48B7
:103730004FF0804101605321C0E9011440F2E731AC
:10374000C0E903148461FEF711FB08B1FDF7B1F87D
:103750004FF48050079007A91F48FEF73FFB08B1C0
:10376000FDF7A7F81C48FEF7EAFC08B1FDF7A1F841
:103770000B940BA918480C94FEF7D7FA08B1FDF783
:1037800098F86020CDE900040294002269461248AE
:103790000494FEF76CFC08B1FDF78BF8042269462F
:1037A0000D48FEF764FC08B1FDF783F8082269466E
:1037B0000948FEF75CFC08B1FDF77BF80C2269466E
:1037C0000548FEF754FC08B1FDF773F80248FEF710
:1037D00025FC0EB010BD00003C0200200C4810B5C6
:1037E0000A4901604FF4E1314160002181600C22FF
:1037F000C160C0E904128161C161FEF765FD002866
:1038000003D0BDE81040FDF754B810BD00100140D2
:103810007C020020FEE770471CB50FA10522D1E90C
:103820000001CDE900016946302000F09FF8052233
:103830006946102000F044F8002069460A5CA52A79
:1038400003D1401CC0B20528F8D3052801D00120BF
:103850001CBD00201CBD0000A5A5A5A5A50000005D
:1038600010B5154C002202212046FDF714F905225F
:1038700012492A2000F07AF80121212000F09AF85C
:103880000121222000F096F82821252000F092F84E
:103890000821312000F08EF80F21262000F08AF850
:1038A0000F21202000F086F820460122BDE81040BC
:1038B0000221FDF7F0B8000000040240A3860008D2
:1038C0002DE9F041DFF83C8015460F460446002202
:1038D00001214046FDF7DFF8204600F0CDF806460E
:1038E000002405E0FF2000F0C7F83855641CE4B25E
:1038F000AC42F7D3012211464046FDF7CCF83046E2
:10390000BDE8F0810004024070B50A4D0446002273
:1039100001212846FDF7BFF8204600F0ADF8FF2052
:1039200000F0AAF80446012211462846FDF7B3F834
:10393000204670BD0004024070B505460720FFF721
:10394000E3FF04460146272000F034F860060AD55C
:10395000082229466120FFF7B3FFFF21E22000F093
:1039600029F8002070BD012070BD00002DE9F04154
:10397000DFF83C8016460D460446002201214046F1
:10398000FDF789F8204600F077F80746002405E0A7
:1039900015F8010B00F070F8641CE4B2B442F7D3E0
:1039A000012211464046FDF776F83846BDE8F08121
:1039B0000004024070B50B4D0E4604460022012162
:1039C0002846FDF768F8204600F056F804463046D1
:1039D00000F052F8012211462846FDF75CF8204617
:1039E00070BD00000004024030EE600A80ED030A62
:1039F000D0ED060A30EE601A80ED051AD0ED040A0B
:103A000070EE801AC0ED041AD0ED080AF4EEE01A48
:103A1000F1EE10FA01DDC0ED040AD0ED041AF1EE6A
:103A2000600AF4EEE01AF1EE10FA01D2C0ED040AD9
:103A3000D0ED000A60EE801AC0ED0A1AD0ED010A3E
:103A400090ED042A60EE820AC0ED0B0A90ED022A86
:103A500071EEA00A22EE011A80ED0C1A70EE810AB6
:103A6000C0ED0D0A80ED060A704770470148FDF76A
:103A70005BBF0000E401002001B582B04FF47A7012
:103A80000090012301AA02A90248FEF747F89DF819
:103A900004000EBDE401002010B5806B0021C18739
:103AA000C186FDF73FFF10BD38B504461248134BE1
:103AB0000068B0FBF3F04FF47A73584300906068ED
:103AC000B0F5827F0DD10B46009200228021204666
:103AD00000F016F870B1606D40F0200060650320C2
:103AE00038BD009830B1401E009020688068C04307
:103AF0000006F6D5002038BD7800002000366E01A3
:103B00002DE9F0411D4617460E460446DDF81880A3
:103B100008E0681C06D0FCF7C3FFA0EB0800A84231
:103B20000BD255B12068806836EA000030D0002002
:103B3000B842EED10020BDE8F0812068416821F054
:103B4000E00141606068B0F5827F0BD1A068B0F5FC
:103B5000004F02D0B0F5806F04D12068016821F0D9
:103B600040010160A06AB0F5005F09D120680168DA
:103B700021F4005101602068016841F400510160A6
:103B8000012084F85100002084F850000320D2E77F
:103B90000120CDE77047FDF7B3BB000030B593B00F
:103BA00030216846FCF77BFB14210CA8FCF777FB5F
:103BB00019480025016841F080510160006800F05B
:103BC000805011901548016821F4404141F40041B2
:103BD00001600068022400F4404011900120009030
:103BE000000401908001CDE9064006200890542091
:103BF000CDE9090404200B906846FDF705FD0CA9EA
:103C00000F2081E83100E002CDE90F0502210CA868
:103C1000FDF710FC13B030BD40380240007000408A
:103C20001048016841F4700101600F48016841F0DB
:103C3000010101600C4A00210832116002680B4B3F
:103C40001A400260031D0A4A1A60026822F48022A8
:103C5000026005480C30016002495806803908604E
:103C60007047000088ED00E000380240FFFFF6FEDC
:103C7000103000240148FEF71DB900003C0200206E
:103C8000F0B502681D4B1E4C9F031E4D1E4E984200
:103C900007D0B84205D0A04203D0A84201D0B0421C
:103CA00004D122F0700C4A6842EA0C02984210D00B
:103CB000B8420ED0A0420CD0A8420AD0B04208D0E0
:103CC000124CA04205D0124CA04202D0114CA0428E
:103CD00003D122F44074CA6822434C6922F0800266
:103CE000224302608A68C2620A688262984201D1F5
:103CF0000969016301214161F0BD0000000001403C
:103D00000004004000080040000C0040004001405A
:103D1000004401400048014010B501F01F0301219B
:103D2000046A99408C430462016A9A40114301621B
:103D300010BD10B5846842EA032224F47F440A438C
:103D40002243826010BD826822F070020A4342F072
:103D5000070181607047000030B5026A22F001025D
:103D60000262026A4368846924F073050C682C437C
:103D700022F002058A682A430A4DA8420BD122F09C
:103D80000805CA6823F440732A434D6922F00402EF
:103D90001D438B692B434360846149684163026220
:103DA00030BD00000000014030B5026A22F0100270
:103DB0000262026A436884690D6824F4E64444EAB6
:103DC00005248D6822F0200242EA05120B4DA8421C
:103DD0000ED1CD6822F0800242EA05124D6923F42B
:103DE000406343EA85038D6922F0400243EA85037C
:103DF0004360846149688163026230BD0000014014
:103E000030B5026A22F480720262036A4268C469B1
:103E100023F4007324F073050C682C438D6843EA87
:103E200005230C4DA8420ED1CD6823F4006343EA6C
:103E300005234D6922F4405242EA05128D6923F4AC
:103E4000806342EA05124260C4614968C16303624B
:103E500030BD00000000014030B5026A22F48052FB
:103E60000262046A4268C3690D6823F4E64343EAC8
:103E700005238D6824F4005444EA0534064DA84215
:103E800004D14D6922F4804242EA85124260C36146
:103E900049680164046230BD0000014010B5036A46
:103EA000046A24F001040462846924F0F00444EA02
:103EB000021423F00A020A438461026210BD10B5A5
:103EC000036A23F0100303628369046A23F47043D6
:103ED00043EA023224F0A00343EA01118261016245
:103EE00010BD10B5806B0021C185C184FEF762F959
:103EF00010BD0168CA6822F49072CA6001684A69FC
:103F000022F001024A61202180F83A10704710B572
:103F100090F83A10222901D0022010BD8168B1F535
:103F2000805F11D00169002901681FD0496801F044
:103F30007F03816A4A1C82620B70C18D491E09048D
:103F4000090CC18518D02BE00269816A002A026839
:103F5000526805D0D2B20A80816A491C8162ECE7BE
:103F6000C2F308020A80816A891CF7E74A68816AFD
:103F70004B1C83620A70E0E70168CA6822F02002E5
:103F8000CA600168CA6822F48072CA6001684A691E
:103F900022F001024A61202180F83A10FEF704FA6B
:103FA000002010BD2DE9F041044600680169E26877
:103FB00021F44051114301612169A068E26908437D
:103FC0006169114322680843D16849F20C6399433F
:103FD0000143D16020684169A26921F44071114315
:103FE0004161E2696425B2F5004F9748974922681C
:103FF0004FF032083FD08A4201D082427CD1FDF797
:10400000C1FA00EBC00101EB001061688900B0FB50
:10401000F1F6FDF7B7FA00EBC00101EB00106168A3
:104020008900B0FBF1F0B0FBF5F06FF018014843E8
:1040300006EB800108EB0110B0FBF5F000F0F00694
:10404000FDF7A0FA00EBC00101EB001061688900E8
:10405000B0FBF1F0B0FBF5F006EB0016FDF792FABD
:1040600000EBC00101EB001061688900B0FBF1F7C3
:10407000FDF788FAD2E08A4201D082423DD1FDF7B5
:1040800081FA00EBC00101EB001061684900B0FB50
:10409000F1F0B0FBF5F00601FDF774FA00EBC0019A
:1040A00001EB001061684900B0FBF1F7FDF76AFA17
:1040B00000EBC00101EB001061684900B0FBF1F0BA
:1040C000B0FBF5F06FF01801484307EB800108EBF7
:1040D000C100B0FBF5F000F0F80006EB4006FDF77C
:1040E00051FA00EBC00101EB001061684900B0FB20
:1040F000F1F7FDF747FA3CE055E0FDF733FA00EB46
:10410000C00101EB001061684900B0FBF1F0B0FBA9
:10411000F5F00601FDF726FA00EBC00101EB0010F7
:1041200061684900B0FBF1F7FDF71CFA00EBC00134
:1041300001EB001061684900B0FBF1F0B0FBF5F055
:104140006FF01801484307EB800108EBC100B0FB9A
:10415000F5F000F0F80006EB4006FDF703FA00EB7F
:10416000C00101EB001061684900B0FBF1F7FDF7F9
:10417000F9F900EBC00101EB001061684900B0FBE8
:10418000F1F0B0FBF5F06FF01801484307EB800148
:1041900008EBC100B0FBF5F000F0070021683044E7
:1041A0008860BDE8F081FDF7DDF900EBC00101EBAF
:1041B000001061688900B0FBF1F6FDF7D3F900EB60
:1041C000C00101EB001061688900B0FBF1F0B0FBA9
:1041D000F5F06FF01801484306EB800108EB011081
:1041E000B0FBF5F000F0F006FDF7BCF900EBC00104
:1041F00001EB001061688900B0FBF1F0B0FBF5F055
:1042000006EB0016FDF7AEF900EBC00101EB001064
:1042100061688900B0FBF1F7FDF7A4F900EBC0017C
:1042200001EB001061688900B0FBF1F0B0FBF5F024
:104230006FF01801484307EB800108EB0110B0FB59
:10424000F5F000F00F00A9E7001401400010014054
:1042500090F83910212901D0022070478168B1F50A
:10426000805F016A0BD04A1C0262026809785160C3
:10427000C18C491E0904090CC1840ED017E00988BD
:104280000268C1F30801516001690029016A02D086
:10429000491C0162ECE7891CFBE70168CA6822F04F
:1042A0008002CA600068C16841F04001C16000201E
:1042B00070472DE9F041984617460E460446069D84
:1042C0001DE0681C1BD02DB1FCF7EAFBA0EB080039
:1042D000A84214D92068C16821F4D071C160206857
:1042E000416921F001014161202084F8390084F8FE
:1042F0003A00002084F838000320BDE8F0812068EF
:10430000006836EA000004D00020B842D9D000206E
:10431000F3E70120F9E700000148FDF74DBF000079
:104320007C020020FEE700000FB4054B10B503A986
:10433000044A029800F00AFD10BC5DF814FB00006E
:10434000955F00087C00002003B4019841000098AC
:1043500050EAC12018BF04204A0D18BF40F00100E8
:1043600040F2FF72B2EB515F08BF40F0020001283B
:1043700008BF052002B070470907090E002804DBBA
:1043800000F1E02080F80014704700F00F0000F109
:10439000E02080F8141D704770B5C1482DED020B68
:1043A0002DED0E8B82B0119D25F000449FEDBEDBFC
:1043B0009FEDBFEB84423EDBA4F140511098A1F188
:1043C0007F6108430FD0BC48844202DC28D110989A
:1043D00030B39DED100B02B0BDEC0E8B02B0BDE80A
:1043E000704000F069BC9DED100B53EC1D2B51EC9F
:1043F000100BFCF713F89DED100B41EC180B53EC70
:104400001E2B51EC100BFCF709F853EC182BFBF7A3
:104410005EFF41EC100B02B0BDEC0E8B02B070BD24
:10442000012000F08DFC02B0BDEC0E8B02B0BDE8A7
:10443000704000F055BCA1489FEDA18B844256DA34
:104440009DED100BB4F1795F0ADA51EC100BFFF718
:104450007BFF042808BF00F053FC9DED100BDAE74A
:1044600053EC102B51EC100BFBF7D8FF41EC190B60
:1044700095480621B0EE490AF0EE690A784400F04A
:104480009FFB53EC192B51EC100BFBF7C7FF41ECD2
:104490001A0B8E48B0EE490AF0EE690A04217844FE
:1044A00000F08EFB53EC192B51EC100BFBF7B6FF11
:1044B00053EC182BFBF70BFF41EC100B51EC1A0BD4
:1044C00053EC102BFCF71CF8CDE900019DED000B1F
:1044D00053EC102B9DED100B51EC100BFBF79EFFD6
:1044E0009DED101B53EC112BFBF7F1FED2E09DED7F
:1044F000100B51EC100B01F041FD53EC182BFBF7A6
:104500008AFF9FED730BCDE9000153EC102B9DED5D
:10451000000B51EC100BFBF781FF41EC190B6E48BF
:104520000621B0EE490AF0EE690A784400F048FB33
:1045300053EC192B51EC100BFBF770FF41EC1B0BEC
:104540006648B0EE490AF0EE690A0421784400F0AA
:1045500037FB53EC192B51EC100BFBF75FFF53ECBF
:10456000182BFBF7B4FE41EC1C0B51EC190B03F0BC
:1045700025FA41EC180B5A489FED5BABA04222DCB8
:1045800053EC1C2B51EC1B0BFBF7BAFFCDE90001E0
:104590009DED000B51EC180B53EC102BFBF73EFF7D
:1045A00053EC182BFBF793FE53EC1A2BFBF736FF5B
:1045B00053EC1D2BFBF72CFF53EC1E2BFBF72BFFB3
:1045C00041EC100B5FE08DED008B002000909DED25
:1045D000000B51EC180B53EC102BFBF778FE9DED04
:1045E000000B41EC1E0B53EC102B51EC100BFBF7A6
:1045F00015FF53EC192BFBF70EFF53EC1E2BFBF7AB
:104600007FFF41EC190B53EC1C2B51EC1B0BFBF700
:1046100077FF41EC1B0B53EC1A2B51EC190BFBF7FA
:10462000FDFE53EC1D2BFBF7F6FE41EC190B53EC92
:104630001A2B51EC180BFBF7F1FE53EC1B2BFBF77D
:10464000EDFE53EC192BFBF7E3FE9DED000B41EC67
:10465000180B53EC1A2B51EC100BFBF7DFFE9FED00
:10466000249B53EC192BFBF7D6FE41EC100B51ECBD
:10467000180B53EC102BFBF7CBFE53EC192BFBF76D
:10468000CAFE41EC100B002D3FF7C5AE51EC100BEC
:1046900081F0004141EC100BBDE60000000000007D
:1046A0000000F03F00000000075C143326A6913C98
:1046B000182D4454FB21F93F0000F07F0000E03F3B
:1046C000000000000000F03F404200004E420000A9
:1046D000000000000000E03F92410000A041000007
:1046E0003333EF3F000000000000000000000040F6
:1046F000182D4454FB21E93F70B59B482DED020B6A
:104700002DED068B079D25F00044A04218DC97484C
:10471000844202DC0AD1069840B19DED060BBDEC47
:10472000068B02B0BDE8704000F0C6BA002DCCBFC9
:104730009FED8F0B9FED900BBDEC068B02B070BD13
:104740008F48A04215DD8F48A042D8BF4FF0FF34FC
:1047500058DD9DED060B51EC100BFFF7F5FD04281D
:1047600008BF00F0CDFA9DED060BBDEC068B02B044
:1047700070BD9DED060B51EC100B01F0FFFBCDE978
:10478000060181489FED828BA0423CDD8248A04219
:104790001FDD00249FED82AB9DED060B53EC1A2B21
:1047A00051EC100BFBF793FD9DED060B41EC190B43
:1047B00053EC1A2B51EC100BFBF730FE53EC182B7B
:1047C000FBF726FE53EC192BFBF79AFECDE9060109
:1047D00049E09DED060B012453EC182B51EC100B16
:1047E000FBF775FD9DED060B41EC190B53EC182BF7
:1047F00051EC100BFBF70CFE53EC192BFBF780FE72
:10480000CDE906012FE06848A0421FDD02249FED9C
:10481000689B9DED060B53EC192B51EC100BFBF72D
:10482000FDFD53EC182BFBF752FD9DED060B41EC03
:10483000180B53EC192B51EC100BFBF7E9FD53EC63
:10484000182BFBF75DFECDE906010CE09DED060B94
:10485000032453EC102B9FED580B51EC100BFBF77E
:104860004FFECDE906019DED060B53EC102B51ECEC
:10487000100BFBF7D3FD41EC180B53EC182BFBF797
:10488000CDFD41EC190B4E480621B0EE490AF0EE81
:10489000690A784400F094F953EC182B51EC100B92
:1048A000FBF7BCFD41EC180B4648B0EE490AF0EEB0
:1048B000690A0521784400F083F953EC192B51EC77
:1048C000100BFBF7ABFD41EC100B51EC180B53EC4C
:1048D000102B002C0EDAFBF7FAFC9DED061B53ECB7
:1048E000112BFBF79BFD9DED061B53EC112BFBF7EA
:1048F00092FD35E0FBF7EBFC9DED061B53EC112B15
:10490000FBF78CFD41EC100B2F48784400EBC40002
:1049100090ED001B51EC100B53EC112BFBF778FDC5
:104920009DED061B53EC112BFBF772FD41EC100BB8
:104930002648784400EBC40090ED001B51EC100BAE
:1049400053EC112BFBF767FD41EC100B002DA2BFC0
:10495000BDEC068B02B070BD51EC100B81F0004134
:1049600041EC100B01E70000000010440000F07F54
:10497000182D4454FB21F93F182D4454FB21F9BF55
:104980000000DC3F0000203E0000F33F000000007C
:10499000000000000000F03F0000E63F00000000C3
:1049A0000000000000000040008003400000000004
:1049B000000000000000F83F000000000000F0BF11
:1049C000E23E0000983E0000223E0000DA3D00007A
:1049D00070B56B4E2DED040B2DED028B82B0DDF822
:1049E0001CC0DDE905235C422CF000411C4341EA78
:1049F000D474049D22F00040B44205D86C422C438C
:104A000040EAD474B4420BD99DED061B9DED040B16
:104A100002B0BDEC028B04B0BDE8704000F056B9A6
:104A2000ACF14054A4F17F641C430BD0022404EA8F
:104A3000AC7444EAD27405439FED538B9FED542B25
:104A400007D015E09DED040B51EC100B00F0F8FBC6
:104A500042E0002C11BF012C9DED040B02B0BDEC17
:104A6000028B04BF04B070BD022C38D0032C3BD0A5
:104A70000B439FED491B9FED4A0B0AD0B14218D161
:104A8000B04209D121F0804120F08040079105908B
:104A90000FE0002A15DA10E0434B7B44002C08BFDE
:104AA00093ED000B0DD0012C10D0022C17D0032C4D
:104AB0001AD0B0421DD1002A03DAB0EE410AF0EE5E
:104AC000610A02B0BDEC028B04B070BD93ED000B27
:104AD00051EC100B81F0004141EC100BF1E7B0EE0E
:104AE000480AF0EE680AECE7B0EE420AF0EE620A1D
:104AF000E7E7401A00153C28C8BF8DED000B19DC14
:104B0000BCF1000FBEBF10F13C0F9FED290B8DEDE6
:104B1000000B0FDB9DED060B53EC102B9DED040BF2
:104B200051EC100BFBF7ECFC01F028FA00F088FBCD
:104B3000CDE90001002C08BF9DED000BC1D0012C78
:104B400010D0022C9FED1C0B53EC102B9DED000B95
:104B500051EC100B0DD0FBF75BFC53EC182BFBF763
:104B600057FCB9E7019880F0004001909DED000BE3
:104B7000A7E7FBF74DFC53EC182BFBF74CFCABE71E
:104B80000000F07F00000000182D4454FB21094074
:104B9000182D4454FB2109C0182D4454FB21F9BFA2
:104BA000182D4454FB21F93F0A3D0000000000008D
:104BB0000000000000000000075C143326A6A13CA2
:104BC00070B504462DED028B4D1E00EBC500B0EE16
:104BD000408AF0EE608A90ED000B35F0060017D0A9
:104BE00053EC182B51EC100BFBF718FC41EC100B9D
:104BF0006D1E04EBC50090ED001B51EC100B53EC47
:104C0000112BFBF764FB41EC100B35F00600E7D1EC
:104C1000022D36D0042D1CD0062D1CBFBDEC028BFE
:104C200070BD53EC182B51EC100BFBF7F7FB94ED18
:104C30000A1B53EC112BFBF74AFB53EC182BFBF729
:104C4000EDFB94ED081B53EC112BFBF740FB41EC03
:104C5000100B53EC182B51EC100BFBF7DFFB94ED12
:104C6000061B53EC112BFBF732FB53EC182BFBF715
:104C7000D5FB94ED040B53EC102BFBF728FB41EC18
:104C8000100B53EC182B51EC100BFBF7C7FB94EDFA
:104C9000021B53EC112BFBF71AFB53EC182BFBF701
:104CA000BDFB94ED001B53EC112BFBF710FBBDEC8F
:104CB000028B41EC100B70BD10B553EC102B51EC76
:104CC000100BFBF704FB41EC100B10BD10B553ECBF
:104CD000112B51EC100BFBF7FAFA41EC100B10BD45
:104CE0009FED050B10B553EC102B51EC100BFBF79F
:104CF00007FC41EC100B10BD00000000000000009C
:104D00009FED050B10B553EC102B51EC100BFBF77E
:104D100085FB41EC100B10BD0000000000000010EE
:104D200002E008C8121F08C1002AFAD17047704774
:104D3000002001E001C1121F002AFBD170470000D2
:104D40000149086070470000800000202DE9FF4FF6
:104D50008DB00F460546002606E025280BD0DDE97C
:104D60000F1290476D1C761C28780028F5D111B0E1
:104D70003046BDE8F08F0024A246A1460122EC494E
:104D800000E0044315F8013F203B02FA03F008421B
:104D9000F7D128782A2810D06FF02F022878A0F1B8
:104DA0003001092914D80AEB8A0102EB410144F0D1
:104DB000020400EB010A6D1CF0E701CF5FEA000A74
:104DC00003D544F40054CAF1000A44F002046D1CF7
:104DD00028782E2817D115F8010F44F004042A284A
:104DE0000ED06FF02F022878A0F1300109290AD8DF
:104DF00009EB890102EB410100EB01096D1CF2E7AF
:104E000057F8049B6D1C28786C280FD006DC4C28C2
:104E100017D068280DD06A2814D104E0742810D067
:104E20007A280FD10DE044F400140AE044F4801411
:104E300001E044F440146978814202D104F5801401
:104E40006D1C6D1C2A786E2A1FD00CDC632A31D0B1
:104E500004DC002A8BD0582A11D1A3E0642A68D040
:104E6000692A0CD165E0732A2ED004DC6F2A73D036
:104E7000702A04D19BE0752A6FD0782A6ED0104634
:104E8000DDE90F129047761C50E1C4F3025002286E
:104E900006D0032809D0042801CF09D0066045E1D7
:104EA00001CFF117C0E9006140E101CF06803DE18B
:104EB00006703BE117F8040B8DF8000000208DF818
:104EC0000100EB46012003E057F804BB4FF0FF3030
:104ED00061074FF0000102D40DE008F1010188469E
:104EE00049450FDA8045F8DB1BF808100029F4D19A
:104EF00008E008F1010188468142FADB1BF808103E
:104F00000029F6D1DDE90F23AAEB080081462146EE
:104F100000F036F9304400EB080604E0DDE90F123A
:104F20001BF8010B9047B8F10108F7D2214648461B
:104F3000F7E00A21C4F302534FF0000B0891022B53
:104F400004D001CFC117032B09D00AE0FF1D27F0C1
:104F50000707F7E8020108E032E01FE020E000B2B6
:104F6000C117042B01D140B2C117031E71F1000318
:104F700007DA4FF0000CD0EB0C006CEB01012D2395
:104F800002E0230504D52B238DF82430012303E010
:104F9000E30701D02023F7E7984658E00A2110E004
:104FA00010210EE010204FF0000B08900CE01021B3
:104FB0004FF0000B44F004044FF00809089103E09F
:104FC00008214FF0000B0891C4F30253022B04D0C8
:104FD00001CF0021032B06D006E0FF1D27F00707B5
:104FE000F7E8020103E080B2042B00D1C0B24FF019
:104FF000000823072BD5702A07D0DDF820C08CF0DD
:10500000100C5CEA0B0C05D00EE040238DF8243028
:10501000012308E050EA010306D030238DF8243044
:105020008DF8252002239846DDF820C08CF0080C6E
:105030005CEA0B0C0BD150EA010301D1630706D5E2
:1050400030238DF824304FF00108A9F10109582AC6
:1050500004D038A20B9208AA0A920BE03AA2F9E710
:105060005B46089AFBF7B2F80B9B9B5C0A9A521EB0
:105070000A92137050EA0102F2D10A98ADEB0000D7
:1050800000F1200B600702D524F4803401E04FF0DA
:105090000109D94502DDA9EB0B0000E0002000EB7F
:1050A0000B0141440890AAEB010AE00306D4DDE9B4
:1050B0000F232146504600F063F806444FF00009E4
:1050C00008E009A911F80900DDE90F12904709F17C
:1050D0000109761CC145F4DBE0030CD5DDE90F23A3
:1050E0002146504600F04CF8064404E0DDE90F127A
:1050F00030209047761C0899481E08900029F5DC5E
:1051000008E00A980A990078491C0A91DDE90F1213
:105110009047761CBBF10001ABF1010BF1DC21469D
:105120005046DDE90F2300F019F806446D1C1BE61C
:10513000092801003031323334353637383961626D
:105140006364656600000000303132333435363731
:105150003839414243444546000000002DE9F04102
:10516000044600251E461746880404D405E0394647
:105170002020B0476D1C641EF9D52846BDE8F0819B
:105180002DE9F041044600251E469046C80301D58E
:10519000302700E02027880404D505E04146384642
:1051A000B0476D1C641EF9D52846BDE8F0810000AB
:1051B000FEB506460D460024684600F0F7FE0022C4
:1051C0009FED1B1A6B46012156F8227055F82200FC
:1051D000381A00D5404200EE100A03EB8200B8EE08
:1051E000C00AD0ED000A20EE010AF5EEC00AF1EE89
:1051F00010FA0DD0C0EE201AB7EE000A0D4F31EEB6
:10520000C00AB0EEC00A10EE100AB84207DC09E08E
:1052100010EE100A084F3844084FB84202D301FA82
:1052200002F00443521C032ACEDB2046FEBD0000E0
:1052300000008037295C0F3E666666C19A99D900E6
:1052400010B541EC100BFFF757FA51EC100B10BDE5
:10525000F8B50546808C0C46762801D0772857D1C2
:10526000012305F13202D021284602F0C9FAE8BB39
:1052700095F83200582801D0602849D1B622E021A3
:10528000284602F0D2FB88BB01236A46F321284658
:1052900002F0B6FA9DF8001001F001010843F3D1C5
:1052A000284602F055FA002833D095F832006028DD
:1052B00004D1284602F0B9FA00282AD06079617832
:1052C000400140EA8100C2B2F521284602F0ADFB60
:1052D00060B92078012801D100202070E078A17801
:1052E000400140EA81002178084300E010E0C6B2A6
:1052F00095F83200602805D12279F221284602F083
:1053000094FB28B93246F421284602F08EFB08B1FE
:105310000020F8BD0120F8BD032101700022427079
:105320008170C1700171417170472DE9FC410446E3
:1053300090F8320090460F461E46602804D00EB109
:1053400000201860002602E00EB1082300E00623CA
:105350006A46F721204602F053FA10B10020BDE85A
:10536000FC819DF800009DF8042001039DF80100D8
:10537000238841EA00119DF80200B4F9025041EA85
:1053800010119DF80300000340EA02109DF805206B
:1053900040EA1210C210A2EB4302C3EB20104043BC
:1053A000B4F904306A430013D212584302EBA0351B
:1053B00005EB85008030001238602A46204600F058
:1053C00071F8C8F80000AEB3BDF80600E18B40BA32
:1053D0008003A0EB0150A5F59635B4F92010227F8B
:1053E00001FB150094F922106A4369434FF400430E
:1053F000891203EBE22251439A0102EBA121B4F995
:105400001A2000F58040514301F50051C013891363
:105410004843C1134943227EC9115143B0EB2110C7
:1054200001D5002004E04FF0C851884200DD084655
:1054300000133060012092E7FEB51C0015460E46B1
:1054400001D002AB00E0002301AA6946FFF76DFF1F
:1054500000281FD09DED000ADFED0F0AB8EEC00A4C
:1054600080EE201ADFED0D0A86ED001A9DED010A8F
:10547000B8EE400A20EE200A85ED000A4CB19DED01
:10548000020ADFED070AB8EE400A20EE200A84ED9A
:10549000000A0120FEBD00000000C8420000803B61
:1054A0000000803A2DE9F05F04468B465349D0173F
:1054B0005118A1FB0123B4F9106040F1FF30A2FBA9
:1054C000069C00FB013301FB0033F71703FB06C604
:1054D00002FB0768B4F90E504FF0000AA5FB017CEF
:1054E000EE1706FB01C605FB00656E0446EAD736DB
:1054F0007F0417EB090546EB0806B4F90C701AEBAC
:10550000050546EBC709B4F90A60A2FB06C803FB10
:1055100006834FEAE67702FB0732B4F908604FEAE8
:105520001C23A6FB01C84FEAE67707FB018106FBB7
:1055300000104FEA003143EA02634FEA0C3041EABF
:105540001C51181841EB2222001C42F50043E2884E
:10555000A0FB027603FB026200FB0A204210C31785
:1055600052EA030047D0CBF58010C117C907C60720
:10557000751B41EA500140F63546A5FB060C61EB70
:10558000090101FB06C1002705FB0711FAF74FFED1
:10559000B4F91630420B42EAC142A3FB027CDD178C
:1055A00005FB02C54E1303FB0653A7FB025C03FB7E
:1055B00002C207FB06226B0E43EAC2135616B4F969
:1055C0001420A2FB007CD51705FB00C502FB01558A
:1055D000FA0CC01842EA45327141801841EBE541AE
:1055E0004FEA102040EA0160B4F912104FEA0111AD
:1055F0004018BDE8F09F0020FBE70000000CFEFF14
:1056000054214843800800BF401EFCD2704708B5B3
:1056100060B120208DF8000028208DF80100302096
:105620008DF8020038208DF8030004E0A322042145
:105630006846FAF72DFE6A46042140F69E2002F0E5
:1056400027F801F0E5FC08BD3EB5044602208DF8C0
:105650000000CA208DF80100E3208DF80200092027
:105660008DF803006A460421682002F011F8A32097
:105670008DF80000610609D5C0218DF80110C82100
:105680008DF80210C2218DF8031005E08DF801009D
:105690008DF802008DF8030014F4C07F09D0C421F6
:1056A0008DF80410CC218DF80510C6218DF8061058
:1056B00005E08DF804008DF805008DF806008DF8E2
:1056C00008008DF807008DF809006A460A2140F6A7
:1056D000A72001F0DDFFA0074FF0D80503D0202060
:1056E0008DF8000001E08DF800506A46012140F677
:1056F000B62001F0CDFFA00601D5012000E000207A
:1057000000F08EF814F4C07F1ED0E0050AD5B22058
:105710008DF800008B208DF80100B6208DF8020076
:105720009B2009E0B0208DF8000080208DF801005A
:10573000B4208DF8020090208DF803006A46042101
:1057400040F6A22001F0A4FFE1074FF40B6022D045
:10575000F8218DF800106A46012101F099FFFA2125
:10576000072000F03BFB072000F006FB012000F0C3
:1057700023FB642000F0E2FB4FF4FA7000F0EEFB34
:10578000C821254800F0C0FA282000F0D5FA0A20E8
:1057900000F0E2FA05E08DF800506A46012101F0C0
:1057A00077FFA00703D5D9208DF8000001E08DF820
:1057B00000506A46012140F23D7001F069FF600728
:1057C00001D5012000E0002000F048F8E00601D5F6
:1057D000012000E00020FFF71AFF104D44F0080000
:1057E000688101F015FC0020A873600601D5062031
:1057F000A87314F4C07F02D0A87B801DA87314F096
:10580000140F02D0A87B1030A873A00702D0A87B89
:10581000001DA87300203EBD09E3CA0284000020D9
:105820000EB54FF4976310B106A107C901E008A2B5
:1058300007CA8DE807006A460921184601F028FFCB
:105840000EBD0000B8AAB38DB4980D355D00000000
:10585000B8AAAAAAB088C3C5C700000008B560B13D
:10586000C0208DF80000C2208DF80100C4208DF802
:105870000200C6208DF8030004E08B220421684654
:10588000FAF706FD6A46042140F6982001F000FF71
:1058900001F0BEFB08BD0000C8234FF4806202493E
:1058A00040F6F63001F096BAA87A00082DE9FF4FCD
:1058B00089B01746DDE9165200244D4E88468146D0
:1058C0002C80A246B07B694601F030FB4FF0FF3BD5
:1058D00018B158460DB0BDE8F08F708910F0140F64
:1058E0003ED0009909BA21F0FF029DF803100A4347
:1058F0003A6001999DF8073009BA21F0FF01194378
:105900007960029B9DF80B401BBA23F0FF032343F1
:10591000BB60039C121424BA24F0FF0C9DF80F40C6
:1059200009144CEA040C1024C7F80CC01B144FEAED
:105930002C4712FB02F211FB012113FB03F217FBB0
:1059400007221144A1F17061B1F1007F04D901F087
:105950005FFBA5F800A0BCE7298841F4807129808D
:105960004206694611D50A19A41D13885BBAA8F826
:10597000003053885BBAA8F80230928852BAA8F86F
:1059800004202A8842F008022A8010F4C07F11D037
:105990000A19A41D13885BBAA9F8003053885BBAB2
:1059A000A9F80230928852BAA9F804202A8842F055
:1059B00070022A80800716D00C44E07800F0C00501
:1059C00000F03F016078C00706D0C80801F0070169
:1059D0003268491C02B190476078000703D57168AE
:1059E00009B1A80988470C9800F056FF002071E71C
:1059F000840000202DE9FF41044603A801F09AF835
:105A0000BDF80C00410CC3032F48028902F00300CB
:105A1000550754F8200000D54042C2F3C105960650
:105A200054F8255000D56D42C2F38116D20554F8C2
:105A3000264000D56442A0FB0367C21702FB037235
:105A400000FB0120820042EA9670A5FB0367EA177B
:105A500002FB037205FB0122950045EA9672A4FB46
:105A60000367E51705FB037304FB01318B0043EA71
:105A70009671030E8DF80030030C8DF80130030A87
:105A80008DF802308DF80300100E8DF80400100C14
:105A90008DF80500100A8DF80600080E8DF8080034
:105AA000080C8DF80900080A8DF80A008DF8072007
:105AB0008DF80B106A460C214FF4257001F0E8FDBB
:105AC00004B0BDE8F08100008400002030B5044639
:105AD00013A285B007CA8DE807004FF0FF35C82C28
